:100000000C9484010C94AE010C94AE010C94AE01DE
:100010000C94AE010C94AE010C94AE010C94AE01A4
:100020000C94AE010C94AE010C94AE010C94AE0194
:100030000C94AE010C94AE010C94AE010C94AE0184
:100040000C94AE010C94AE010C94AE010C94AE0174
:100050000C94AE010C94AE010C94AE010C946B02A6
:100060000C94AE010C94C3030C94AE010C94AE013D
:100070000C94AE010C94AE010C94AE010C94AE0144
:100080000C94AE010C94AE010C94AE010C94AE0134
:100090000C94EF030C94AE010C94AE010C94AE01E1
:1000A0000C94AE010C94AE010C94AE010C94AE0114
:1000B0000C94AE010C94AE010C94AE010C94AE0104
:1000C0000C94AE010C94AE010C94AE010C941B0484
:1000D0000C94AE010C94AE010C9447040C94AE0148
:1000E0000C94AE01005EBCE2613FDD83C29C7E20C9
:1000F000A3FD1F419DC3217FFCA2401E5F01E3BD04
:100100003E6082DC237D9FC1421CFEA0E1BF5D03F7
:1001100080DE3C62BEE0025CDF81633D7C22C09EEB
:100120001D43A1FF4618FAA427799BC584DA3866D7
:10013000E5BB5907DB856739BAE406581947A5FBC3
:100140007826C49A653BD987045AB8E6A7F91B45B7
:10015000C6987A24F8A6441A99C7257B3A6486D8AB
:100160005B05E7B98CD2306EEDB3510F4E10F2AC97
:100170002F7193CD114FADF3702ECC92D38D6F3183
:10018000B2EC0E50AFF1134DCE90722C6D33D18F77
:100190000C52B0EE326C8ED0530DEFB1F0AE4C126B
:1001A00091CF2D73CA947628ABF517490856B4EA57
:1001B0006937D58B5709EBB536688AD495CB297743
:1001C000F4AA4816E9B7550B88D6346A2B7597C937
:1001D0004A14F6A8742AC896154BA9F7B6E80A542B
:1001E000D7896B3500002100240027002A002D004C
:1001F0003000330001010000040107010A01000082
:100200002200250028002B002E00310034000201BE
:100210000000050108010B0100002000230026005A
:1002200029002C002F00320000010000030106010C
:10023000090105050505070508080808020202026C
:100240000A0A080804040404010101010101010172
:100250000303030303030303040707070C0C0C0C3D
:100260000C0C0C0C02020202060606060606060626
:100270000B0B0B0B0B0B0B0B0102102020080810B3
:100280002040102040800201020108040201010206
:1002900004081020408080402010080402018004DF
:1002A000020180402010080402010804020101023A
:1002B0000408102040800102040810204080000043
:1002C000090A02080B0C0D070603040100000000D8
:1002D000000000000000000000000000000000001E
:1002E00000000000000000000000100F0E000000E1
:1002F00000000000000000000000000000000000FE
:1003000000000000B001EF0411241FBECFEFD1E2C6
:10031000DEBFCDBF12E0A0E0B2E0E8E4F5E100E02E
:100320000BBF02C007900D92A036B107D9F714E0B9
:10033000A0E6B2E001C01D92A53FB107E1F713E0CE
:10034000C8E0D3E004C02297FE010E949E0AC43098
:10035000D107C9F70E9464020C94A20A0C94000011
:100360000F931F9300E612E0C80165E10E94100A96
:100370008EE692E0B8010E94BC0681E892E060E05F
:1003800070E00E94BC061F910F9108958F929F927A
:10039000AF92BF92CF92DF92EF92FF920F931F9393
:1003A000CF93DF93CC24DD24AA24BB24EE24FF24A6
:1003B00081E0882E912C1EC083E00E944C0380FFB8
:1003C00021960F5F1F4F063A1105B1F7C825D925B1
:1003D000C170D070CE25DF25219719F40894A11C97
:1003E000B11C0894C11CD11C88ECC816D10439F08A
:1003F000E824F92400E010E0C0E0D0E0DDCF8DEA91
:1004000094E0B5010E94B4068DEA94E060E072E0E9
:100410000E94ED05DF91CF911F910F91FF90EF901A
:10042000DF90CF90BF90AF909F908F9008950F93E3
:100430001F930FEB14E0C80140E855E260E070E064
:100440000E94730468EE73E080E090E00E94B302C3
:10045000C80163E072E00E94ED0564EF71E080E0A6
:1004600090E00E94B302C80163E372E00E94ED05D0
:100470001F910F9108958DEA94E040E855E260E005
:1004800070E00E9473040E94170283E084B984E53F
:100490008CBD289AEAE7F0E08081846080838081C7
:1004A0008D7F808380818E7F808380E361E00E94E6
:1004B0007C038EE692E00E94B90764E670E080E07B
:1004C00090E00E94B30208950E94EB020E943B025A
:1004D0000E94C601FDCF1F920F920FB60F921124FA
:1004E0002F933F938F939F93AF93BF9380919802E5
:1004F00090919902A0919A02B0919B0230919C0236
:100500000196A11DB11D232F2D5F2D3720F02D57F2
:100510000196A11DB11D20939C0280939802909397
:100520009902A0939A02B0939B02809194029091B9
:100530009502A0919602B09197020196A11DB11D5E
:100540008093940290939502A0939602B0939702A1
:10055000BF91AF919F918F913F912F910F900FBEBF
:100560000F901F901895EF92FF920F931F937B01AE
:100570008C018FB7F8944091980250919902609144
:100580009A0270919B028FBF2FB7F89480919802C6
:1005900090919902A0919A02B0919B022FBF841B67
:1005A000950BA60BB70BE816F9060A071B0760F7B1
:1005B0001F910F91FF90EF900895019759F0FC0162
:1005C000EE0FFF1FEE0FFF1F32978FB7F894319792
:1005D000F1F78FBF0895789484B5826084BD84B5A7
:1005E000816084BD85B5826085BD85B5816085BD2E
:1005F000EEE6F0E0808181608083E1E8F0E08081D8
:1006000082608083808181608083E0E8F0E0808187
:1006100081608083E1EBF0E0808184608083E0EBA7
:10062000F0E0808181608083E1E9F0E08081826098
:100630008083808181608083E1EAF0E08081826054
:100640008083808181608083E1E2F1E0808182604B
:100650008083808181608083E0E9F0E08081816037
:100660008083E0EAF0E0808181608083E0E2F1E075
:10067000808181608083EAE7F0E08081846080830C
:1006800080818260808380818160808380818068B6
:1006900080831092C1000895382F37702091550241
:1006A0002295220F220F207C232B20937C00209167
:1006B0007B0086958695869590E08170907033E0FA
:1006C000880F991F3A95E1F7277F282B20937B000D
:1006D00080917A00806480937A0080917A0086FD10
:1006E000FCCF2091780040917900942F80E030E099
:1006F000282B392BC9010895282F30E0C9018858CB
:100700009D4FFC0194912E5C3D4FF901849188230B
:1007100091F0E82FF0E0EE0FFF1FEC51FE4FA59196
:10072000B491662329F48C91909589238C93089534
:100730008C91892B8C9308950F931F93CF93DF9304
:10074000482FFB018B0100581F4FD801CD91DC9140
:10075000CE01019660E870E00E94380A9C01EE57D5
:10076000FF4F80819181E258F0402817390731F01E
:10077000CE0FDF1F4883F80131832083DF91CF91B3
:100780001F910F9108951F920F920FB60F920BB603
:100790000F9211242F933F934F935F936F937F9307
:1007A0008F939F93AF93BF93EF93FF938091C60076
:1007B0006DE972E00E949C03FF91EF91BF91AF91B0
:1007C0009F918F917F916F915F914F913F912F9169
:1007D0000F900BBE0F900FBE0F901F9018951F9299
:1007E0000F920FB60F920BB60F9211242F933F93D7
:1007F0004F935F936F937F938F939F93AF93BF9329
:10080000EF93FF938091CE0061E273E00E949C031E
:10081000FF91EF91BF91AF919F918F917F916F91D8
:100820005F914F913F912F910F900BBE0F900FBE94
:100830000F901F9018951F920F920FB60F920BB644
:100840000F9211242F933F934F935F936F937F9356
:100850008F939F93AF93BF93EF93FF938091D600B5
:1008600065EA73E00E949C03FF91EF91BF91AF9105
:100870009F918F917F916F915F914F913F912F91B8
:100880000F900BBE0F900FBE0F901F9018951F92E8
:100890000F920FB60F920BB60F9211242F933F9326
:1008A0004F935F936F937F938F939F93AF93BF9378
:1008B000EF93FF938091360169E274E00E949C03FC
:1008C000FF91EF91BF91AF919F918F917F916F9128
:1008D0005F914F913F912F910F900BBE0F900FBEE4
:1008E0000F901F901895AF92BF92CF92DF92EF9228
:1008F000FF920F931F93CF93DF936C017A018B01CB
:10090000DC011496AD90BC901597CB01BA0122E0A2
:1009100030E040E050E00E946D0A205C3D4B404FCB
:100920005F4FCA01B901A80197010E946D0AC90170
:10093000DA010197A109B109292F3A2F4B2F552729
:1009400047FD5A950196A11DB11DE5012883E601D9
:10095000EE81FF8181508083EA85FB85208141E023
:1009600050E0CA010E8402C0880F991F0A94E2F772
:10097000282B2083EA85FB852081CA010F8402C0D1
:10098000880F991F0A94E2F7282B2083EA85FB85BC
:100990008081088802C0440F551F0A94E2F7842B17
:1009A0008083DF91CF911F910F91FF90EF90DF90A7
:1009B000CF90BF90AF900895FC01A085B1852189AB
:1009C0008C9190E0022E02C0959587950A94E2F7EB
:1009D00080FFF6CF0484F585E02D608308952AE535
:1009E00032E03093AE042093AD048DE992E0909311
:1009F000B0048093AF0485EC90E09093B2048093B0
:100A0000B10484EC90E09093B4048093B30480EC40
:100A100090E09093B6048093B50481EC90E09093BD
:100A2000B8048093B70486EC90E09093BA04809366
:100A3000B90474E07093BB0463E06093BC0457E0B6
:100A40005093BD0445E04093BE043093C00420930E
:100A5000BF0481E293E09093C2048093C1048DECC3
:100A600090E09093C4048093C3048CEC90E0909346
:100A7000C6048093C50488EC90E09093C8048093EA
:100A8000C70489EC90E09093CA048093C9048EEC6B
:100A900090E09093CC048093CB047093CD0460934A
:100AA000CE045093CF044093D0043093D2042093CB
:100AB000D10485EA93E09093D4048093D30485ED28
:100AC00090E09093D6048093D50484ED90E09093C9
:100AD000D8048093D70480ED90E09093DA0480935B
:100AE000D90481ED90E09093DC048093DB0486EDE3
:100AF00090E09093DE048093DD047093DF046093B4
:100B0000E0045093E1044093E2043093E404209322
:100B1000E30489E294E09093E6048093E50485E39E
:100B200091E09093E8048093E70484E391E090934C
:100B3000EA048093E90480E391E09093EC048093CD
:100B4000EB0481E391E09093EE048093ED0486E35F
:100B500091E09093F0048093EF047093F10460931C
:100B6000F2045093F3044093F40408950F931F93F9
:100B7000CF93DF938C01EB0109C02196D801ED9151
:100B8000FC910190F081E02DC801099568816623F0
:100B9000A1F7DF91CF911F910F910895EF92FF92EE
:100BA0000F931F93CF93DF938C017B01EA010CC05D
:100BB000D7016D917D01D801ED91FC910190F081FB
:100BC000E02DC80109952197209791F7DF91CF91EA
:100BD0001F910F91FF90EF900895DC01ED91FC9132
:100BE0000280F381E02D099508952F923F924F9254
:100BF0005F926F927F928F929F92AF92BF92CF92AD
:100C0000DF92EF92FF920F931F93DF93CF93CDB7B5
:100C1000DEB7A0970FB6F894DEBF0FBECDBF1C01A4
:100C20006A017B01411551056105710549F4DC013B
:100C3000ED91FC910190F081E02D60E3099554C0A5
:100C4000882499245401422E55246624772401E0F7
:100C500010E00C0F1D1F080D191DC701B601A301DF
:100C600092010E944B0AF80160830894811C911C38
:100C7000A11CB11CC701B601A30192010E944B0A3D
:100C8000C901DA016C017D01C114D104E104F10450
:100C9000F1F681E0E82EF12CEC0EFD1EE80CF91CBB
:100CA0003E010894611C711CD501C4010197A10982
:100CB000B1096C01C818D90814C0F601EE0DFF1D6A
:100CC00060816A3010F4605D01C0695CD101ED9112
:100CD000FC910190F081E02DC10109950894E10893
:100CE000F1086E147F0449F7A0960FB6F894DEBFA2
:100CF0000FBECDBFCF91DF911F910F91FF90EF906D
:100D0000DF90CF90BF90AF909F908F907F906F902B
:100D10005F904F903F902F900895EF92FF920F9326
:100D20001F93CF93DF93EC017A018B0177FF0FC004
:100D3000E881F9810190F081E02D6DE2099510952F
:100D40000095F094E094E11CF11C011D111DCE01F1
:100D5000B801A7012AE00E94F505DF91CF911F910C
:100D60000F91FF90EF900895AB01662757FD6095B6
:100D7000762F0E948D060895FC018CEC96E0928BF4
:100D8000818B768365831482108289E090E0928360
:100D9000818381E0838308950895EF92FF920F93FA
:100DA0001F938C017B01FC01858196810E942F0994
:100DB000F80185819681B7010E940E09F8018581AD
:100DC000968164EB40E00E94CE08F801858196810F
:100DD0000E944908F82EF801858196810E942F090A
:100DE00080E0FF2009F481E01F910F91FF90EF90C8
:100DF0000895CF92DF92EF92FF920F931F938C0191
:100E00006B017A01FC01858196810E942F09F8010E
:100E100085819681B6010E940E09F801858196812F
:100E20006EEB40E00E94CE08F801858196810E9419
:100E30007D08F7018083F801858196810E947D08F5
:100E4000F7018183F801858196810E947D08F70171
:100E50008283F801858196810E947D08F701838352
:100E6000F801858196810E947D08F7018483F8014D
:100E7000858196810E947D08F7018583F80185812F
:100E800096810E947D08F7018683F801858196810D
:100E90000E947D08F7018783F801858196810E9471
:100EA0007D08F7018087F801858196810E942F09CE
:100EB0001F910F91FF90EF90DF90CF9008950F93C7
:100EC0001F938A010E94F906C80168E00E94380851
:100ED00020E0F8019085891709F421E0822F1F9105
:100EE0000F910895DF93CF93CDB7DEB729970FB653
:100EF000F894DEBF0FBECDBF9C01FB018081803125
:100F0000D9F0C901AE014F5F5F4F0E945F07882390
:100F1000A9F08D818F3371F0803418F48F3171F422
:100F20000BC08F3519F08F3749F402C08BE007C032
:100F30008CE005C08AE003C089E001C080E029960A
:100F40000FB6F894DEBF0FBECDBFCF91DF910895ED
:100F50000F931F938B01CB0167E00E94380820E0BC
:100F6000F8019781891709F421E0822F1F910F91D1
:100F700008959F92AF92BF92CF92DF92EF92FF922D
:100F80000F931F93DF93CF93CDB7DEB761970FB663
:100F9000F894DEBF0FBECDBF7C01FC018581968138
:100FA0000E942B08F70114826E010894C11CD11C09
:100FB00079E0A72EB12CAC0EBD1E9924939431C0BC
:100FC000C701B6010E94A807882359F1F701808163
:100FD000882341F4C701B6010E94CD06882311F091
:100FE000F7019082C701B601A5010E94F906F70139
:100FF00001811281C701B6010E94720790E080173B
:10100000910724F4F7018181928105C0C701B601DF
:101010000E94720790E0F7018183928384818F5F41
:101020008483F70185819681B6010E947A0988231D
:1010300039F661960FB6F894DEBF0FBECDBFCF91E3
:10104000DF911F910F91FF90EF90DF90CF90BF90B5
:10105000AF909F900895FC0113861586148687E053
:1010600090E012863197009711F00197FACF08951A
:10107000DC0180E00BC0E82FF0E08D9190E0E827E4
:10108000F927EC51FF4FE49161508E2F662399F7B9
:101090000895DF92EF92FF920F931F93FC01E0807F
:1010A00001811281F894F80181818E2981838281E6
:1010B000DE2CD0948D21828383E090E00E94DD02BB
:1010C000F80181818D2181838AE090E00E94DD0218
:1010D000F8010081789485E390E00E94DD0280E0D1
:1010E00010E0FF240E211F21012B09F081E01F9148
:1010F0000F91FF90EF90DF900895EF92FF920F9382
:101100001F93CF93DF937C0101E010E0C0E0D0E0BB
:10111000C7010E9449088111102B000F2196C83089
:10112000D105B1F7812FDF91CF911F910F91FF90E2
:10113000EF9008951F93CF93DF93FC011081C1813D
:10114000D281912F909560FF12C0F8948A818923F3
:101150008A838981812B89838AE090E00E94DD0265
:101160008A81812B8A83789487E390E011C0F89478
:101170008A8189238A838981812B898381E490E014
:101180000E94DD028A81812B8A83789485E090E039
:101190000E94DD02DF91CF911F910895CF92DF92DF
:1011A000EF92FF920F931F93CF93DF938C01E42E66
:1011B000FF24F394C0E0D0E0C62EDD2460E08F2D44
:1011C00090E08C219D21892B09F061E0C8010E94EB
:1011D0009A08FF0C2196C830D10581F7EE20A9F4BA
:1011E000F894D8011196ED91FC91129791818C9110
:1011F0008095982391831196ED91FC91129792819D
:101200008C918095982392837894DF91CF911F9150
:101210000F91FF90EF90DF90CF900895EF92FF92A3
:101220000F931F93CF93DF938C017B0165E540E023
:101230000E94CE08C0E0D0E0F701EC0FFD1FC8010E
:10124000608140E00E94CE082196C830D105A1F708
:10125000DF91CF911F910F91FF90EF900895DF9252
:10126000EF92FF920F931F93CF93DF93FC010081C6
:10127000C181D281F8948981D02ED0948D21898327
:1012800078941DE7E02EFF24115059F182E090E0A0
:101290000E94DD02888190E08E219F21892BA1F39D
:1012A000F8948A818D218A838981802B898378941F
:1012B00084EF91E00E94DD02F89489818D21898379
:1012C00080E590E00E94DD02888110E090E0E82255
:1012D000F922EF2809F411E0789484EA91E00E9461
:1012E000DD02812FDF91CF911F910F91FF90EF9041
:1012F000DF900895AF92BF92DF92EF92FF920F932B
:101300001F93CF93DF93EC015B018D85882309F058
:1013100061C0CE010E942F09882329F41B861D86F7
:101320001C8690E06BC0CE0160EF40E00E94CE08CA
:10133000EE24FF24F39401E0DD24CE010E9449084D
:10134000182FCE010E944908113019F48130E1F4C0
:1013500039C0181709F58B85081770F460E0FE0195
:10136000EE0DF11D838190E02F2D30E08223932339
:10137000181619064CF003C060E0081729F0093070
:1013800008F04CC00C874AC0FE01EE0DF11D8381B0
:101390008F29838361E009C0612FFE01EE0DF11DED
:1013A0009F2D9095838189238383CE010E949A0883
:1013B0000F5FFF0C19F4E394FF24F39487E08E157C
:1013C00008F0BBCF013430F0DB86DD2011F581E081
:1013D0008D871FC01B861D861C8690E0DE0120E0E5
:1013E00030E0F501E20FF31F13968C911397808381
:1013F0002F5F3F4F11962830310599F7892FDF91E4
:10140000CF911F910F91FF90EF90DF90BF90AF9021
:1014100008958B818823F1F291E0E0CFD02EBDCFEB
:10142000FF920F931F938C01F62E862F60E00E948F
:101430007C038F2D90E0FC01E858FD4FE491D8012A
:10144000EC938E5C9D4FFC016491E62FF0E0EE0F73
:10145000FF1FE85EFD4F8591949112969C938E93A9
:101460001197C8010E942B081F910F91FF900895BA
:1014700097FB092E07260AD077FD04D049D006D065
:1014800000201AF4709561957F4F0895F6F79095B6
:1014900081959F4F0895A1E21A2EAA1BBB1BFD0147
:1014A0000DC0AA1FBB1FEE1FFF1FA217B307E40743
:1014B000F50720F0A21BB30BE40BF50B661F771F9B
:1014C000881F991F1A9469F760957095809590957B
:1014D0009B01AC01BD01CF01089597FB092E0526A4
:1014E0000ED057FD04D0D7DF0AD0001C38F4509539
:1014F0004095309521953F4F4F4F5F4F0895F6F738
:1015000090958095709561957F4F8F4F9F4F08956F
:10151000AA1BBB1B51E107C0AA1FBB1FA617B70719
:1015200010F0A61BB70B881F991F5A95A9F7809535
:101530009095BC01CD010895EE0FFF1F0590F49129
:08154000E02D0994F894FFCF9F
:101548000D0A0024504D544B3331342C302C312C9F
:10155800302C312C302C302C302C302C302C302CA2
:10156800302C302C302C302C302C302C302A323887
:101578000D0A0024504D544B3331332C302A324657
:101588000D0A00653A20002C004750524D43004791
:1015980050474741000100000000DC04B605CE05B5
:00000001FF
