:100000000C9484010C94AE010C94AE010C94AE01DE
:100010000C94AE010C94AE010C94AE010C94AE01A4
:100020000C94AE010C94AE010C94AE010C94AE0194
:100030000C94AE010C94AE010C94AE010C94AE0184
:100040000C94AE010C94AE010C94AE010C94AE0174
:100050000C94AE010C94AE010C94AE010C94790C8E
:100060000C94AE010C945C0E0C94AE010C94AE0199
:100070000C94AE010C94AE010C94AE010C94AE0144
:100080000C94AE010C94AE010C94AE010C94AE0134
:100090000C94880E0C94AE010C94AE010C94AE013D
:1000A0000C94AE010C94AE010C94AE010C94AE0114
:1000B0000C94AE010C94AE010C94AE010C94AE0104
:1000C0000C94AE010C94AE010C94AE010C94B40EE1
:1000D0000C94AE010C94AE010C94E00E0C94AE01A5
:1000E0000C94AE01005EBCE2613FDD83C29C7E20C9
:1000F000A3FD1F419DC3217FFCA2401E5F01E3BD04
:100100003E6082DC237D9FC1421CFEA0E1BF5D03F7
:1001100080DE3C62BEE0025CDF81633D7C22C09EEB
:100120001D43A1FF4618FAA427799BC584DA3866D7
:10013000E5BB5907DB856739BAE406581947A5FBC3
:100140007826C49A653BD987045AB8E6A7F91B45B7
:10015000C6987A24F8A6441A99C7257B3A6486D8AB
:100160005B05E7B98CD2306EEDB3510F4E10F2AC97
:100170002F7193CD114FADF3702ECC92D38D6F3183
:10018000B2EC0E50AFF1134DCE90722C6D33D18F77
:100190000C52B0EE326C8ED0530DEFB1F0AE4C126B
:1001A00091CF2D73CA947628ABF517490856B4EA57
:1001B0006937D58B5709EBB536688AD495CB297743
:1001C000F4AA4816E9B7550B88D6346A2B7597C937
:1001D0004A14F6A8742AC896154BA9F7B6E80A542B
:1001E000D7896B3500002100240027002A002D004C
:1001F0003000330001010000040107010A01000082
:100200002200250028002B002E00310034000201BE
:100210000000050108010B0100002000230026005A
:1002200029002C002F00320000010000030106010C
:10023000090105050505070508080808020202026C
:100240000A0A080804040404010101010101010172
:100250000303030303030303040707070C0C0C0C3D
:100260000C0C0C0C02020202060606060606060626
:100270000B0B0B0B0B0B0B0B0102102020080810B3
:100280002040102040800201020108040201010206
:1002900004081020408080402010080402018004DF
:1002A000020180402010080402010804020101023A
:1002B0000408102040800102040810204080000043
:1002C000090A02080B0C0D070603040100000000D8
:1002D000000000000000000000000000000000001E
:1002E00000000000000000000000100F0E000000E1
:1002F00000000000000000000000000000000000FE
:1003000000000000AC08C40F11241FBECFEFD1E2E3
:10031000DEBFCDBF13E0A0E0B2E0E8E3F3E300E02E
:100320000BBF02C007900D92AE36B107D9F716E0A9
:10033000AEE6B3E001C01D92AB3AB107E1F713E0BE
:10034000C8E0D3E004C02297FE010E94DB17C4304E
:10035000D107C9F70E94720C0C949A190C940000F2
:10036000EF92FF920F931F937B018C0120E030E00E
:1003700040E05FE40E942C0588238CF0C801B7019F
:1003800020E030E040E05FE40E9428030E94EA059C
:100390009B01AC01205030404040504806C0C8018D
:1003A000B7010E94EA059B01AC01B901CA011F9186
:1003B0000F91FF90EF900895A0E0B0E0E2EEF1E041
:1003C0000C94A217DC012B01FA019C91923008F4E5
:1003D00039C1EB018881823008F433C1943069F46B
:1003E000843009F02FC111969C911197898198173B
:1003F00009F428C1A7E5B2E025C1843009F421C180
:100400008230A9F4923009F01DC19A01AD0188E053
:10041000EA010990AE01E90109929E018150C1F7FC
:10042000E201898111969C918923818308C19230D0
:1004300009F407C112962D903C901397EB018A8125
:100440009B811496AD90BD90CD90DC901797EC8079
:10045000FD800E811F819101281B390BB90137FFE7
:1004600004C066277727621B730B603271050CF09E
:1004700061C0121613066CF537014801062E04C040
:1004800096948794779467940A94D2F721E030E0A9
:1004900040E050E004C0220F331F441F551F6A95EF
:1004A000D2F721503040404050402E213F21402380
:1004B0005123211531054105510521F021E030E09E
:1004C00040E050E079018A01E628F7280829192937
:1004D0003CC0232BD1F1260E371E35014601062ED6
:1004E00004C096948794779467940A94D2F721E095
:1004F00030E040E050E004C0220F331F441F551F7E
:100500006A95D2F721503040404050402A213B218B
:100510004C215D21211531054105510521F021E0D6
:1005200030E040E050E059016A01A628B728C82809
:10053000D9280BC0821593052CF01C01AA24BB24DA
:10054000650103C0EE24FF24870111969C91D2011E
:1005500011968C91981709F445C0992339F0A80198
:1005600097012A193B094C095D0906C0A6019501AE
:100570002E193F09400B510B57FD08C011823382E1
:10058000228224833583468357831DC081E0818383
:100590003382228288279927DC01821B930BA40BCC
:1005A000B50B84839583A683B7830DC0220F331FB9
:1005B000441F551F2483358346835783828193814B
:1005C0000197938382832481358146815781DA01A3
:1005D000C9010197A109B1098F5F9F4FAF4FBF4379
:1005E00028F30BC0918333822282EA0CFB1C0C1D82
:1005F0001D1DE482F5820683178383E080832481B6
:1006000035814681578157FF1AC0C901AA2797FD36
:10061000A095BA2F81709070A070B07056954795D4
:1006200037952795822B932BA42BB52B8483958309
:10063000A683B78382819381019693838283DF01AE
:1006400001C0D201CD01CDB7DEB7E2E10C94BE17F7
:10065000A0E2B0E0EEE2F3E00C94AE1769837A8397
:100660008B839C832D833E834F835887E9E0EE2E56
:10067000F12CEC0EFD1ECE010196B7010E94DB07A6
:100680008E010F5E1F4FCE010596B8010E94DB0759
:100690008A8991E089278A8BC701B801AE01475E3C
:1006A0005F4F0E94DC010E940607A096E6E00C94D2
:1006B000CA17A0E2B0E0EFE5F3E00C94AE1769834F
:1006C0007A838B839C832D833E834F835887F9E005
:1006D000EF2EF12CEC0EFD1ECE010196B7010E940B
:1006E000DB078E010F5E1F4FCE010596B8010E94F9
:1006F000DB07C701B801AE01475E5F4F0E94DC0116
:100700000E940607A096E6E00C94CA17A0E2B0E0AB
:10071000ECE8F3E00C94A21769837A838B839C83C3
:100720002D833E834F835887CE010196BE01675FBC
:100730007F4F0E94DB07CE010596BE016F5E7F4FA3
:100740000E94DB079985923088F089898230C8F051
:10075000943019F4823051F404C0843029F492307A
:1007600081F487E592E0C6C0923049F420E09A8592
:100770008A89981321E02A87CE010996BBC082306E
:1007800049F420E09A858A89981321E02A8BCE01CA
:100790004196B0C02D843E844F8458886D887E88F1
:1007A0008F88988CEE24FF248701AA24BB2465013E
:1007B00040E050E060E070E0E0E0F0E0C101817016
:1007C0009070892BE9F0E60CF71C081D191D9A01A1
:1007D000AB012A0D3B1D4C1D5D1D80E090E0A0E0AB
:1007E000B0E0E614F7040805190520F481E090E074
:1007F000A0E0B0E0BA01A901480F591F6A1F7B1F92
:10080000AA0CBB1CCC1CDD1C97FE08C081E090E04C
:10081000A0E0B0E0A82AB92ACA2ADB2A3196E03241
:10082000F10549F0660C771C881C991C5694479476
:1008300037942794C3CFFA85EA892B893C898B8525
:100840009C85280F391F2E5F3F4F17C0CA0181704A
:100850009070892B61F016950795F794E79480E0E6
:1008600090E0A0E0B0E8E82AF92A0A2B1B2B769545
:100870006795579547952F5F3F4F77FDE7CF0CC0A2
:10088000440F551F661F771F17FD4160EE0CFF1CBC
:10089000001F111F21503040403090E0590790E078
:1008A000690790E4790760F32B8F3C8FDB01CA0165
:1008B0008F779070A070B07080349105A105B1055C
:1008C00061F447FD0AC0E114F1040105110529F0A6
:1008D000405C5F4F6F4F7F4F40781A8EFE1711F0CC
:1008E00081E08A8F4D8F5E8F6F8F78A383E0898F31
:1008F000CE0149960E940607A096E2E10C94BE172D
:10090000A8E1B0E0E6E8F4E00C94AA1769837A83E2
:100910008B839C832D833E834F835887B9E0EB2ED6
:10092000F12CEC0EFD1ECE010196B7010E94DB07F3
:100930008E010F5E1F4FCE010596B8010E94DB07A6
:100940002985223008F47EC03989323010F4B8018C
:100950007CC08A859A8989278A87243011F02230C1
:1009600031F4231709F06EC067E572E06EC03430D1
:1009700039F41D861E861F86188A1C861B8604C0B5
:10098000323021F484E08987B7015FC02B853C8534
:100990008B899C89281B390B3C872B87ED84FE842F
:1009A0000F851889AD88BE88CF88D88CEA14FB04DF
:1009B0000C051D0540F4EE0CFF1C001F111F2150FB
:1009C00030403C872B8720E030E040E050E080E082
:1009D00090E0A0E0B0E460E070E0EA14FB040C05F5
:1009E0001D0540F0282B392B4A2B5B2BEA18FB08FE
:1009F0000C091D09B695A79597958795EE0CFF1CD8
:100A0000001F111F6F5F7F4F6F31710531F7DA01E2
:100A1000C9018F779070A070B07080349105A105E6
:100A2000B10561F427FD0AC0E114F10401051105C7
:100A300029F0205C3F4F4F4F5F4F20782D873E8736
:100A40004F87588BBE01675F7F4FCB010E9406071F
:100A50006896EAE00C94C617A8E1B0E0E2E3F5E09E
:100A60000C94AE1769837A838B839C832D833E839A
:100A70004F83588789E0E82EF12CEC0EFD1ECE0145
:100A80000196B7010E94DB078E010F5E1F4FCE015A
:100A90000596B8010E94DB078985823040F089897C
:100AA000823028F0C701B8010E94530801C08FEFBF
:100AB0006896E6E00C94CA17A8E1B0E0E2E6F5E03B
:100AC0000C94AE1769837A838B839C832D833E833A
:100AD0004F83588789E0E82EF12CEC0EFD1ECE01E5
:100AE0000196B7010E94DB078E010F5E1F4FCE01FA
:100AF0000596B8010E94DB078985823040F089891C
:100B0000823028F0C701B8010E94530801C081E07B
:100B10006896E6E00C94CA17A8E0B0E0E2E9F5E0D8
:100B20000C94AB179B01AC0183E08983DA01C90106
:100B30008827B7FD83959927AA27BB27B82E2115AB
:100B400031054105510519F482E089833AC08823B3
:100B5000A9F0203080E0380780E0480780E8580797
:100B600029F460E070E080E09FEC30C0EE24FF24C8
:100B70008701E21AF30A040B150B02C079018A01FE
:100B80008EE1C82ED12CDC82CB82ED82FE820F83D7
:100B90001887C801B7010E94B706019718161906F1
:100BA00084F4082E04C0EE0CFF1C001F111F0A94D1
:100BB000D2F7ED82FE820F831887C81AD90ADC8229
:100BC000CB82BA82CE0101960E9406072896E9E000
:100BD0000C94C717ACE0B0E0E0EFF5E00C94B2176E
:100BE00069837A838B839C83CE010196BE016B5F00
:100BF0007F4F0E94DB078D81823061F1823050F19E
:100C0000843021F48E81882351F12EC02F813885C4
:100C100037FD20C06E812F3131051CF06623F9F0BD
:100C200023C08EE190E0821B930B29853A854B858A
:100C30005C8504C056954795379527958A95D2F7D8
:100C40006623B1F050954095309521953F4F4F4F19
:100C50005F4F0EC020E030E040E050E009C02FEFD1
:100C60003FEF4FEF5FE704C020E030E040E050E8A6
:100C7000B901CA012C96E2E00C94CE17A8E0B0E0CE
:100C8000E4E4F6E00C94AA177B018C016115710570
:100C90008105910519F482E0898360C083E089832E
:100CA0008EE1C82ED12CDC82CB82ED82FE820F83B6
:100CB0001887C801B7010E94B706FC013197F7FFFA
:100CC0003BC0222733272E1B3F0B57016801022E02
:100CD00004C0D694C794B794A7940A94D2F740E07E
:100CE00050E060E070E081E090E0A0E0B0E004C09F
:100CF000880F991FAA1FBB1F2A95D2F70197A10938
:100D0000B1098E219F21A023B1230097A105B10530
:100D100021F041E050E060E070E04A295B296C2955
:100D20007D294D835E836F8378878EE190E08E1BF3
:100D30009F0B9C838B8312C0309781F00E2E04C0D2
:100D4000EE0CFF1C001F111F0A94D2F7ED82FE82E9
:100D50000F831887CE1ADF0ADC82CB821A82CE017B
:100D600001960E9406072896EAE00C94C617EF92B7
:100D7000FF920F931F937B018C0180E0E81680E0C7
:100D8000F80681E0080780E0180788F48FEFE8167E
:100D9000F1040105110531F028F088E090E0A0E0B1
:100DA000B0E017C080E090E0A0E0B0E012C080E0CA
:100DB000E81680E0F80680E0080781E0180728F0D0
:100DC00088E190E0A0E0B0E004C080E190E0A0E025
:100DD000B0E020E230E040E050E0281B390B4A0B45
:100DE0005B0B04C016950795F794E7948A95D2F7A4
:100DF000F701E15AFD4F8081281B31094109510952
:100E0000C9011F910F91FF90EF900895DF92EF922B
:100E1000FF920F931F93FC01E480F58006811781F8
:100E2000D1808081823048F480E090E0A0E1B0E0A1
:100E3000E82AF92A0A2B1B2BA5C0843009F49FC08D
:100E4000823021F4EE24FF24870105C0E114F1046F
:100E50000105110519F4E0E0F0E096C062817381AC
:100E60009FEF623879070CF05BC022E83FEF261B4A
:100E7000370B2A3131052CF020E030E040E050E023
:100E80002AC0B801A701022E04C076956795579530
:100E900047950A94D2F781E090E0A0E0B0E004C06A
:100EA000880F991FAA1FBB1F2A95D2F70197A10986
:100EB000B1098E219F21A023B1230097A105B1057F
:100EC00021F081E090E0A0E0B0E09A01AB01282B96
:100ED000392B4A2B5B2BDA01C9018F779070A070F8
:100EE000B07080349105A105B10539F427FF09C020
:100EF000205C3F4F4F4F5F4F04C0215C3F4F4F4F2F
:100F00005F4FE0E0F0E02030A0E03A07A0E04A07C1
:100F1000A0E45A0710F0E1E0F0E079018A0127C06F
:100F20006038710564F5FB01E158FF4FD801C70136
:100F30008F779070A070B07080349105A105B105D5
:100F400039F4E7FE0DC080E490E0A0E0B0E004C01A
:100F50008FE390E0A0E0B0E0E80EF91E0A1F1B1F2F
:100F600017FF05C016950795F794E794319687E02B
:100F700016950795F794E7948A95D1F705C0EE2466
:100F8000FF248701EFEFF0E06E2F679566276795E6
:100F9000902F9F77D794DD24D7948E2F8695492F55
:100FA000462B582F5D29B701CA011F910F91FF9061
:100FB000EF90DF900895FC01DB0140815181228197
:100FC000622F6F7770E0221F2227221F9381892FC3
:100FD000880F822B282F30E0991F9927991F11968F
:100FE0009C93119721153105A9F54115510561050E
:100FF000710511F482E037C082E89FEF13969C934D
:101000008E9312979A01AB0167E0220F331F441FA2
:10101000551F6A95D1F783E08C930DC0220F331FC3
:10102000441F551F12968D919C911397019713960B
:101030009C938E931297203080E0380780E0480719
:1010400080E4580758F314962D933D934D935C9389
:10105000179708952F3F310579F441155105610522
:10106000710519F484E08C93089564FF03C081E056
:101070008C9312C01C9210C02F57304013963C9393
:101080002E93129783E08C9387E0440F551F661FC1
:10109000771F8A95D1F7706414964D935D936D9385
:1010A0007C93179708951F93DC01FB019C9192306C
:1010B00008F447C08081823008F443C0943051F472
:1010C00011961C91843099F58181682F70E0611B25
:1010D00071093FC0843021F0923031F48230B9F18F
:1010E0008181882389F12DC011961C91119782303E
:1010F000F1F081811817D9F412962D913C91139734
:10110000828193818217930794F028173907BCF0E6
:1011100014968D919D910D90BC91A02D24813581C7
:1011200046815781281739074A075B0718F41123AE
:1011300041F00AC082179307A407B50740F41123B2
:1011400019F061E070E005C06FEF7FEF02C060E072
:1011500070E0CB011F9108950F931F930EE613E0EB
:10116000C80165E10E9416178CE793E0B8010E9460
:1011700042128FE893E060E070E00E9442121F91FB
:101180000F9108950F931F9303E716E0C80140E005
:1011900051EE60E070E00E940C0F64EF71E080E0BF
:1011A00090E00E94C10CC80160E072E00E94C21091
:1011B00064EF71E080E090E00E94C10CC80160E340
:1011C00072E00E94C2101F910F91089581E696E08F
:1011D00040E855E260E070E00E940C0F0E94C208F7
:1011E00083E084B984E58CBD289AEAE7F0E0808149
:1011F0008460808380818D7F808380818E7F8083E7
:1012000080E361E00E948A0D8CE793E00E94BA14AB
:1012100064E670E080E090E00E94C10C08955F9267
:101220006F927F928F929F92AF92BF92CF92DF92F6
:10123000EF92FF920F931F93DF93CF93CDB7DEB75B
:101240002C970FB6F894DEBF0FBECDBFDE0111960E
:10125000E0E4F2E086E001900D928150E1F7DE01DA
:101260001796E6E4F2E086E001900D928150E1F7F6
:10127000E4C180916103882361F483E796E00E94D2
:10128000890F8093AC03843209F0EBC15092610363
:10129000E8C180914504082F10E083E796E00E94A2
:1012A000890F04551C4FF801808390914504E92F64
:1012B000F0E0E455FC4F80818A3009F0BAC1109209
:1012C00061038091400490914104892B21F4D092D4
:1012D0004104C09240048CEA93E0B50145E050E03F
:1012E0000E943B19009709F0CCC02091470480E090
:1012F00090E0FC01E455FC4FE0810196EA3269F48C
:101300002093470484559C4F60E070E040E150E03A
:101310000E94DF176093460406C02E27843691058D
:1013200041F7209347049091460480914704981711
:1013300009F0A5C060915F03709160038CEA93E0AF
:1013400048EA53E00E9449199093A7038093A603AB
:1013500060915F037091600380E090E048EA53E0A1
:101360000E9449199093A7038093A60360915F039D
:101370007091600380E090E048EA53E00E944919D0
:101380009093A7038093A60360915F03709160031D
:1013900080E090E048EA53E00E944919BC01909334
:1013A000A7038093A60380E194E00E943419809102
:1013B000A6039091A7036AEA73E04AE050E00E9416
:1013C000DF178091AA039091AB03019660E070E073
:1013D0004AE050E00E94DF1760915F037091600364
:1013E00080E090E048EA53E00E9449199093A703F7
:1013F0008093A60360915F037091600380E090E0AA
:1014000048EA53E00E944919BC019093A7038093D6
:10141000A60388E294E00E9434198091A60390917B
:10142000A7036AEA73E04AE050E00E94DF17809168
:10143000AA039091AB03019660E070E04AE050E0AF
:101440000E94DF1760915F037091600380E090E07D
:1014500048EA53E00E9449199093A7038093A6039A
:101460008091400490914104892B21F4F092410431
:10147000E092400480914204816080934204109283
:1014800047048CEA93E0B40145E050E00E943B1928
:10149000009709F0BDC02091470480E090E0FC0176
:1014A000E455FC4FE0810196EA3269F42093470449
:1014B00084559C4F60E070E040E150E00E94DF17EF
:1014C0006093460406C02E278436910541F7209389
:1014D00047049091460480914704981709F096C0FC
:1014E00060915F03709160038CEA93E048EA53E0F7
:1014F0000E9449199093A7038093A60360915F030C
:101500007091600380E090E048EA53E00E9449193E
:101510009093A7038093A60360915F03709160038B
:1015200080E090E048EA53E00E9449199093A703B5
:101530008093A60360915F037091600380E090E068
:1015400048EA53E00E9449199093A7038093A603A9
:1015500060915F037091600380E090E048EA53E09F
:101560000E9449199093A7038093A60360915F039B
:101570007091600380E090E048EA53E00E944919CE
:101580009093A7038093A60360915F03709160031B
:1015900080E090E048EA53E00E9449199093A70345
:1015A0008093A6030E940E19892B29F070924104A2
:1015B0006092400404C0F0924104E09240046091C3
:1015C0005F037091600380E090E048EA53E00E947E
:1015D00049199093A7038093A6030E940E19909334
:1015E00044048093430460915F037091600380E042
:1015F00090E048EA53E00E9449199093A703809332
:10160000A6038091420482608093420410924704B2
:101610008091450490E020E030E0F901E455FC4F72
:1016200010822F5F3F4F82179307BCF7109245043B
:1016300018C09F5F9093450414C05E010894A11CDC
:10164000B11C37E0832E912C8C0E9D1E22E0E22EE1
:10165000F12C93E0692E712C81E0C82ED12C5524F9
:10166000539483E796E00E94750F882309F001CE1A
:101670002C960FB6F894DEBF0FBECDBFCF91DF9191
:101680001F910F91FF90EF90DF90CF90BF90AF90A0
:101690009F908F907F906F905F9008950E940F09A8
:1016A00080914004909141040397C1F70E940F0973
:1016B00008952F923F924F925F926F927F928F92F6
:1016C0009F92AF92BF92CF92DF92EF92FF920F93D1
:1016D0001F93CF93DF938CE793E00E94361380E053
:1016E0000E945A0D3C0181E00E945A0D2C0182E0BB
:1016F0000E945A0D1C01CC24DD24AA24BB24EE2414
:10170000FF2441E0842E912C1EC083E00E945A0DDC
:1017100080FF21960F5F1F4F063A1105B1F7C825CC
:10172000D925C170D070CE25DF25219719F40894F2
:10173000A11CB11C0894C11CD11C84E6C816D1049C
:1017400039F0E824F92400E010E0C0E0D0E0DDCF7B
:1017500080E360E00E94AA0D81E08EBD0DB407FE1B
:10176000FDCF8EB590E0A0E0B0E08093A20390930F
:10177000A303A093A403B093A50384E690E00E9482
:10178000EB0C81E08EBD0DB407FEFDCF2EB5922F80
:1017900080E0A0E0B0E02091A2033091A30340914B
:1017A000A4035091A503280F391F4A1F5B1F2093E4
:1017B000A2033093A3034093A4035093A50380E3B3
:1017C00061E00E94AA0D8CE793E060E00E94931410
:1017D0007B018C010E944E0BC0E1D4E0FE01019020
:1017E0000020E9F73197EC1BFD0B359708F467C033
:1017F00081E696E06CE472E00E94C21081E696E019
:10180000BE010E94C21081E696E060E572E00E948F
:10181000C21081E696E068E274E00E94C21081E6A0
:1018200096E060E572E00E94C21081E696E0B801A1
:10183000A7010E943E1281E696E060E572E00E94F8
:10184000C21081E696E0B3010E94AF1181E696E0F6
:1018500060E572E00E94C21081E696E0B2010E944B
:10186000AF1181E696E060E572E00E94C21081E669
:1018700096E0B1010E94AF1181E696E060E572E06A
:101880000E94C2104091A2035091A3036091A4034F
:101890007091A50381E696E00E94841181E696E0AE
:1018A00060E572E00E94C21081E696E0B5010E94F8
:1018B000AF1181E696E062E572E00E94E110DF91EF
:1018C000CF911F910F91FF90EF90DF90CF90BF903D
:1018D000AF909F908F907F906F905F904F903F90D0
:1018E0002F9008950E94F90C0E94E6080E94590B5F
:1018F000FDCF1F920F920FB60F9211242F933F939B
:101900008F939F93AF93BF9380914C0490914D041C
:10191000A0914E04B0914F04309150040196A11D46
:10192000B11D232F2D5F2D3720F02D570196A11DBE
:10193000B11D2093500480934C0490934D04A093C8
:101940004E04B0934F048091480490914904A091B3
:101950004A04B0914B040196A11DB11D8093480427
:1019600090934904A0934A04B0934B04BF91AF9164
:101970009F918F913F912F910F900FBE0F901F90CD
:101980001895EF92FF920F931F937B018C018FB7F5
:10199000F89440914C0450914D0460914E04709124
:1019A0004F048FBF2FB7F89480914C0490914D0451
:1019B000A0914E04B0914F042FBF841B950BA60B32
:1019C000B70BE816F9060A071B0760F71F910F917E
:1019D000FF90EF900895019759F0FC01EE0FFF1F63
:1019E000EE0FFF1F32978FB7F8943197F1F78FBF43
:1019F0000895789484B5826084BD84B5816084BD87
:101A000085B5826085BD85B5816085BDEEE6F0E077
:101A1000808181608083E1E8F0E080818260808362
:101A2000808181608083E0E8F0E080818160808354
:101A3000E1EBF0E0808184608083E0EBF0E0808186
:101A400081608083E1E9F0E0808182608083808131
:101A500081608083E1EAF0E0808182608083808120
:101A600081608083E1E2F1E0808182608083808117
:101A700081608083E0E9F0E0808181608083E0EA3A
:101A8000F0E0808181608083E0E2F1E0808181602C
:101A90008083EAE7F0E080818460808380818260D7
:101AA00080838081816080838081806880831092C0
:101AB000C1000895382F3770209162032295220FBC
:101AC000220F207C232B20937C0020917B00869585
:101AD0008695869590E08170907033E0880F991F0D
:101AE0003A95E1F7277F282B20937B0080917A009D
:101AF000806480937A0080917A0086FDFCCF2091EB
:101B0000780040917900942F80E030E0282B392B29
:101B1000C9010895282F30E0C90188589D4FFC0164
:101B200094912E5C3D4FF9018491882391F0E82F28
:101B3000F0E0EE0FFF1FEC51FE4FA591B49166232C
:101B400029F48C91909589238C9308958C91892BFD
:101B50008C930895482F50E0CA0182549D4FFC0198
:101B60002491CA0188589D4FFC0194914E5C5D4FB1
:101B7000FA013491332309F477C0222309F462C0B7
:101B8000233021F4809180008F7705C0243031F418
:101B9000809180008F7D8093800054C0213019F4A3
:101BA00084B58F7704C0223021F484B58F7D84BD45
:101BB00049C0263021F48091B0008F7705C02730CE
:101BC00031F48091B0008F7D8093B0003BC028300D
:101BD00021F4809190008F7705C0293031F48091F5
:101BE00090008F7D809390002DC02A3021F4809149
:101BF0009000877FF7CF2B3021F48091A0008F7762
:101C00000BC02C3021F48091A0008F7D05C02D30B9
:101C100031F48091A000877F8093A00013C02E3004
:101C200021F4809120018F770BC02F3021F4809117
:101C300020018F7D05C0203129F480912001877F0C
:101C400080932001E32FF0E0EE0FFF1FE250FE4FE4
:101C5000A591B491662329F48C91909589238C9356
:101C600008958C91892B8C9308950F931F93CF9394
:101C7000DF93482FFB018B0100581F4FD801CD91F6
:101C8000DC91CE01019660E870E00E943E179C0155
:101C9000EE57FF4F80819181E258F04028173907B5
:101CA00031F0CE0FDF1F4883F80131832083DF91AD
:101CB000CF911F910F9108951F920F920FB60F921F
:101CC0000BB60F9211242F933F934F935F936F9313
:101CD0007F938F939F93AF93BF93EF93FF938091E5
:101CE000C60061E574E00E94350EFF91EF91BF914F
:101CF000AF919F918F917F916F915F914F913F91A4
:101D00002F910F900BBE0F900FBE0F901F90189544
:101D10001F920F920FB60F920BB60F9211242F93B2
:101D20003F934F935F936F937F938F939F93AF9363
:101D3000BF93EF93FF938091CE0065ED74E00E9416
:101D4000350EFF91EF91BF91AF919F918F917F9150
:101D50006F915F914F913F912F910F900BBE0F901C
:101D60000FBE0F901F9018951F920F920FB60F92F3
:101D70000BB60F9211242F933F934F935F936F9362
:101D80007F938F939F93AF93BF93EF93FF93809134
:101D9000D60069E575E00E94350EFF91EF91BF9185
:101DA000AF919F918F917F916F915F914F913F91F3
:101DB0002F910F900BBE0F900FBE0F901F90189594
:101DC0001F920F920FB60F920BB60F9211242F9302
:101DD0003F934F935F936F937F938F939F93AF93B3
:101DE000BF93EF93FF93809136016DED75E00E94F4
:101DF000350EFF91EF91BF91AF919F918F917F91A0
:101E00006F915F914F913F912F910F900BBE0F906B
:101E10000FBE0F901F901895AF92BF92CF92DF9296
:101E2000EF92FF920F931F93CF93DF936C017A0190
:101E30008B01DC011496AD90BC901597CB01BA01D3
:101E400022E030E040E050E00E947317205C3D4B00
:101E5000404F5F4FCA01B901A80197010E94731753
:101E6000C901DA010197A109B109292F3A2F4B2F96
:101E7000552747FD5A950196A11DB11DE5012883FF
:101E8000E601EE81FF8181508083EA85FB85208118
:101E900041E050E0CA010E8402C0880F991F0A94E5
:101EA000E2F7282B2083EA85FB852081CA010F8475
:101EB00002C0880F991F0A94E2F7282B2083EA8535
:101EC000FB858081088802C0440F551F0A94E2F701
:101ED000842B8083DF91CF911F910F91FF90EF9022
:101EE000DF90CF90BF90AF900895DC011296ED91F6
:101EF000FC911397E058FF4F8191919180589F4F2B
:101F000020813181821B930B60E870E00E943E17B4
:101F10000895CF93DF93DC011296ED91FC91139716
:101F2000EF01CE57DF4F48815981E058FF4F808144
:101F30009181E058F0408417950719F42FEF3FEF97
:101F40000CC0E40FF51F2081CA01019660E870E023
:101F50000E943E179983888330E0C901DF91CF91B9
:101F60000895FC01A085B18521898C9190E0022E15
:101F700002C0959587950A94E2F780FFF6CF048416
:101F8000F585E02D6083089527E633E030936206FF
:101F90002093610681E594E0909364068093630644
:101FA00085EC90E0909366068093650684EC90E063
:101FB000909368068093670680EC90E090936A06A1
:101FC0008093690681EC90E090936C0680936B0699
:101FD00086EC90E090936E0680936D0674E07093AB
:101FE0006F0663E06093700657E05093710645E01A
:101FF00040937206309374062093730685ED94E047
:1020000090937606809375068DEC90E09093780619
:10201000809377068CEC90E090937A068093790613
:1020200088EC90E090937C0680937B0689EC90E0AE
:1020300090937E0680937D068EEC90E090938006D0
:1020400080937F0670938106609382065093830687
:1020500040938406309386062093850689E595E0B3
:10206000909388068093870685ED90E090938A068A
:102070008093890684ED90E090938C0680938B0684
:1020800080ED90E090938E0680938D0681ED90E038
:102090009093900680938F0686ED90E09093920641
:1020A00080939106709393066093940650939506DF
:1020B0004093960630939806209397068DED95E011
:1020C00090939A068093990685E391E090939C06FD
:1020D00080939B0684E391E090939E0680939D06F7
:1020E00080E391E09093A00680939F0681E391E0C6
:1020F0009093A2068093A10686E391E09093A406B4
:102100008093A3067093A5066093A6065093A70636
:102110004093A80608950F931F93CF93DF938C01EC
:10212000EB0109C02196D801ED91FC910190F0815D
:10213000E02DC801099568816623A1F7DF91CF9151
:102140001F910F910895EF92FF920F931F93CF93DA
:10215000DF938C017B01EA010CC0D7016D917D01F9
:10216000D801ED91FC910190F081E02DC801099515
:102170002197209791F7DF91CF911F910F91FF90B9
:10218000EF900895DC01ED91FC910280F381E02D48
:10219000099508950F931F938C01DC01ED91FC913B
:1021A0000190F081E02D6DE00995D801ED91FC9151
:1021B0000190F081E02DC8016AE009951F910F910F
:1021C00008950F931F938C010E94C210C8010E94B2
:1021D000CA101F910F9108952F923F924F925F92D4
:1021E0006F927F928F929F92AF92BF92CF92DF9227
:1021F000EF92FF920F931F93DF93CF93CDB7DEB78C
:10220000A0970FB6F894DEBF0FBECDBF1C016A01C8
:102210007B01411551056105710549F4DC01ED9122
:10222000FC910190F081E02D60E3099554C0882471
:1022300099245401422E55246624772401E010E0AD
:102240000C0F1D1F080D191DC701B601A301920136
:102250000E945117F80160830894811C911CA11CF5
:10226000B11CC701B601A30192010E945117C90117
:10227000DA016C017D01C114D104E104F104F1F62D
:1022800081E0E82EF12CEC0EFD1EE80CF91C3E015D
:102290000894611C711CD501C4010197A109B10901
:1022A0006C01C818D90814C0F601EE0DFF1D60813D
:1022B0006A3010F4605D01C0695CD101ED91FC9160
:1022C0000190F081E02DC10109950894E108F10821
:1022D0006E147F0449F7A0960FB6F894DEBF0FBEC8
:1022E000CDBFCF91DF911F910F91FF90EF90DF90C5
:1022F000CF90BF90AF909F908F907F906F905F90A6
:102300004F903F902F9008952AE00E94EC1008957E
:10231000EF92FF920F931F93CF93DF93EC017A011B
:102320008B0177FF0FC0E881F9810190F081E02DEA
:102330006DE2099510950095F094E094E11CF11C74
:10234000011D111DCE01B801A7012AE00E94EC1069
:10235000DF91CF911F910F91FF90EF900895AB0106
:10236000662757FD6095762F0E94881108959F92E9
:10237000AF92BF92CF92DF92EF92FF920F931F9393
:10238000CF93DF93EC017A018B01922ECB01BA013E
:1023900020E030E040E050E00E945C05882364F4D7
:1023A000E881F9810190F081E02DCE016DE209957F
:1023B00017FB109517F9109520E030E040E05FE33F
:1023C000AA240BC0CA01B90120E030E040E251E488
:1023D0000E9480049B01AC01A394A91498F3C80146
:1023E000B7010E9459035B016C010E94B0017B019F
:1023F0008C01CE01B801A7010E948411992029F017
:10240000CE0165E572E00E94C210C801B7010E94CA
:102410003E069B01AC01C601B5010E94280320C005
:1024200020E030E040E251E40E9486037B018C0111
:102430000E94EA055B016C01CC24B7FCC094DC2C43
:10244000CE01B601A5010E948811C601B5010E9406
:102450008C059B01AC01C801B7010E9428039A9426
:102460009920F1F6DF91CF911F910F91FF90EF909E
:10247000DF90CF90BF90AF909F90089522E00E9490
:10248000B7110895FC0189E093E1928B818B7683EB
:1024900065831482108289E090E09283818381E0D9
:1024A000838308956F927F928F929F92AF92BF9293
:1024B000CF92DF92EF92FF920F931F93CF93DF9310
:1024C000FB01EA01998180E0288130E0282B392B3B
:1024D000E081E23231F0E83221F0E03109F084C0ED
:1024E0004BC04C814F3329F1403420F44F3109F077
:1024F0007BC02FC04F3579F04F3709F075C0B90157
:10250000882777FD8095982F0E948C0520E030E089
:1025100040E85DE32EC035952795B901882777FD02
:102520008095982F0E948C0520E030E040E05EE32B
:1025300020C03595279535952795B901882777FDD2
:102540008095982F0E948C0520E030E040E85EE303
:1025500010C093E0359527959A95E1F7B901882742
:1025600077FD8095982F0E948C0520E030E040E0B8
:102570005FE30E94860332C0EF8035952795B9014D
:10258000882777FD8095982F0E948C0520E030E009
:1025900040E85EE30E9428033B014C016E2D70E091
:1025A0002E81621B7109882777FD8095982F0E94E4
:1025B0008C055B016C01FF2400E010E0C801B7014D
:1025C0000E943E069B01AC01C601B5010E94800439
:1025D0009B01AC01C401B3010E9459039B01AC01F2
:1025E000832F942F752F00C0262F382F492F572F58
:1025F000B901CA01DF91CF911F910F91FF90EF9028
:10260000DF90CF90BF90AF909F908F907F906F9012
:1026100008950895EF92FF920F931F938C017B0111
:10262000FC01858196810E943516F801858196818D
:10263000B7010E941416F8018581968164EB40E091
:102640000E94CF15F801858196810E944A15F82EC7
:10265000F801858196810E94351680E0FF2009F4FB
:1026600081E01F910F91FF90EF900895CF93DF933A
:10267000EC018D819E810E9435168D819E810E9484
:102680000F168D819E8164E448810E94CF158B8155
:10269000882321F149815A814930510551F049304F
:1026A0005105B4F04A30510549F04B30510581F4E1
:1026B0000AC06EE570E080E090E00EC06CEB70E068
:1026C00080E090E009C067E771E080E090E004C03E
:1026D0006EEE72E080E090E00E94C10CDF91CF913D
:1026E0000895CF92DF92EF92FF920F931F938C0188
:1026F0006B017A01FC01858196810E943516F801F3
:1027000085819681B6010E941416F8018581968113
:102710006EEB40E00E94CF15F801858196810E9402
:102720007E15F7018083F801858196810E947E15D0
:10273000F7018183F801858196810E947E15F7015A
:102740008283F801858196810E947E15F70183833B
:10275000F801858196810E947E15F7018483F80136
:10276000858196810E947E15F7018583F801858118
:1027700096810E947E15F7018683F80185819681F6
:102780000E947E15F7018783F801858196810E945A
:102790007E15F7018087F801858196810E943516A4
:1027A0001F910F91FF90EF90DF90CF9008950F93BE
:1027B0001F938A010E947113C80168E00E943915B5
:1027C00020E0F8019085891709F421E0822F1F91FC
:1027D0000F910895CF92DF92EF92FF920F931F9384
:1027E000DF93CF93CDB7DEB729970FB6F894DEBF4E
:1027F0000FBECDBF8C017B016E010894C11CD11CA2
:10280000A6010E94D713882329F460E070E08EEFC0
:1028100092EC05C0C801B701A6010E945212299688
:102820000FB6F894DEBF0FBECDBFCF91DF911F91E1
:102830000F91FF90EF90DF90CF900895DF93CF93AB
:10284000CDB7DEB729970FB6F894DEBF0FBECDBF68
:102850009C01FB0180818031D9F0C901AE014F5F3D
:102860005F4F0E94D7138823A9F08D818F3371F0B9
:10287000803418F48F3171F40BC08F3519F08F3715
:1028800049F402C08BE007C08CE005C08AE003C0B9
:1028900089E001C080E029960FB6F894DEBF0FBE34
:1028A000CDBFCF91DF9108950F931F938B01CB0183
:1028B00067E00E94391520E0F8019781891709F433
:1028C00021E0822F1F910F910895EF92FF920F93B5
:1028D0001F93CF93DF93EC017B01042F8D819E81A9
:1028E0000E942C1510E007C0CE01B7010E945414BD
:1028F0008823A9F00AC08D819E81B7010E948016AD
:10290000882329F0101759F4EFCF81E001C080E04F
:10291000DF91CF911F910F91FF90EF9008951F5F6E
:102920000117A8F3E8CFEF92FF920F931F93DF9365
:10293000CF93CDB7DEB728970FB6F894DEBF0FBEA2
:10294000CDBF7C01462F8E010F5F1F4FB8010E9443
:102950006514C701B8010E94EA1328960FB6F894CF
:10296000DEBF0FBECDBFCF91DF911F910F91FF90C2
:10297000EF9008959F92AF92BF92CF92DF92EF9225
:10298000FF920F931F93DF93CF93CDB7DEB761977D
:102990000FB6F894DEBF0FBECDBF7C01FC01858170
:1029A00096810E942C15F70114826E010894C11CB7
:1029B000D11C79E0A72EB12CAC0EBD1E99249394A6
:1029C00031C0C701B6010E945414882359F1F701A0
:1029D0008081882341F4C701B6010E940A1388232D
:1029E00011F0F7019082C701B601A5010E94711391
:1029F000F70101811281C701B6010E941E1490E007
:102A00008017910724F4F7018181928105C0C701E5
:102A1000B6010E941E1490E0F701818392838481A5
:102A20008F5F8483F70185819681B6010E948016AD
:102A3000882339F661960FB6F894DEBF0FBECDBF7E
:102A4000CF91DF911F910F91FF90EF90DF90CF908A
:102A5000BF90AF909F900895FC0113861586148651
:102A600087E090E012863197009711F00197FACF36
:102A70000895DC0180E00BC0E82FF0E08D9190E03C
:102A8000E827F927EC51FF4FE49161508E2F662320
:102A900099F70895DF92EF92FF920F931F93FC0135
:102AA000E08001811281F894F80181818E2981836F
:102AB0008281DE2CD0948D21828383E090E00E947D
:102AC000EB0CF80181818D2181838AE090E00E94E6
:102AD000EB0CF8010081789485E390E00E94EB0C08
:102AE00080E010E0FF240E211F21012B09F081E07E
:102AF0001F910F91FF90EF90DF900895EF92FF925A
:102B00000F931F93CF93DF937C0101E010E0C0E0AF
:102B1000D0E0C7010E944A158111102B000F2196A9
:102B2000C830D105B1F7812FDF91CF911F910F915F
:102B3000FF90EF9008951F93CF93DF93FC011081D6
:102B4000C181D281912F909560FF12C0F8948A8143
:102B500089238A838981812B89838AE090E00E947E
:102B6000EB0C8A81812B8A83789487E390E011C0F3
:102B7000F8948A8189238A838981812B898381E4DE
:102B800090E00E94EB0C8A81812B8A83789485E007
:102B900090E00E94EB0CDF91CF911F910895CF92AE
:102BA000DF92EF92FF920F931F93CF93DF938C01ED
:102BB000E42EFF24F394C0E0D0E0C62EDD2460E0D4
:102BC0008F2D90E08C219D21892B09F061E0C801B7
:102BD0000E949B15FF0C2196C830D10581F7EE208D
:102BE000A9F4F894D8011196ED91FC911297918176
:102BF0008C918095982391831196ED91FC91129779
:102C000092818C918095982392837894DF91CF91D3
:102C10001F910F91FF90EF90DF90CF9008956CEC93
:102C200040E00E94CF150895EF92FF920F931F93FB
:102C3000CF93DF938C017B0165E540E00E94CF15C7
:102C4000C0E0D0E0F701EC0FFD1FC801608140E05B
:102C50000E94CF152196C830D105A1F7DF91CF9101
:102C60001F910F91FF90EF900895DF92EF92FF92E6
:102C70000F931F93CF93DF93FC010081C181D28119
:102C8000F8948981D02ED0948D21898378941DE782
:102C9000E02EFF24115059F182E090E00E94EB0CED
:102CA000888190E08E219F21892BA1F3F8948A815D
:102CB0008D218A838981802B8983789484EF91E0A8
:102CC0000E94EB0CF89489818D21898380E590E046
:102CD0000E94EB0C888110E090E0E822F922EF28B6
:102CE00009F411E0789484EA91E00E94EB0C812FC2
:102CF000DF91CF911F910F91FF90EF90DF9008959A
:102D0000AF92BF92DF92EF92FF920F931F93CF93F8
:102D1000DF93EC015B018D85882309F061C0CE0152
:102D20000E943516882329F41B861D861C8690E098
:102D30006BC0CE0160EF40E00E94CF15EE24FF246F
:102D4000F39401E0DD24CE010E944A15182FCE0134
:102D50000E944A15113019F48130E1F439C0181776
:102D600009F58B85081770F460E0FE01EE0DF11D8A
:102D7000838190E02F2D30E08223932318161906CB
:102D80004CF003C060E0081729F0093008F04CC08F
:102D90000C874AC0FE01EE0DF11D83818F298383CC
:102DA00061E009C0612FFE01EE0DF11D9F2D909590
:102DB000838189238383CE010E949B150F5FFF0CC3
:102DC00019F4E394FF24F39487E08E1508F0BBCF49
:102DD000013430F0DB86DD2011F581E08D871FC0E6
:102DE0001B861D861C8690E0DE0120E030E0F501A8
:102DF000E20FF31F13968C91139780832F5F3F4F41
:102E000011962830310599F7892FDF91CF911F91C5
:102E10000F91FF90EF90DF90BF90AF9008958B815E
:102E20008823F1F291E0E0CFD02EBDCFFF920F9337
:102E30001F938C01F62E862F60E00E948A0D8F2D45
:102E400090E0FC01E858FD4FE491D801EC938E5CD2
:102E50009D4FFC016491E62FF0E0EE0FFF1FE85E4E
:102E6000FD4F8591949112969C938E931197C80172
:102E70000E942C151F910F91FF90089597FB092E2A
:102E800007260AD077FD04D049D006D000201AF4D6
:102E9000709561957F4F0895F6F7909581959F4FB6
:102EA0000895A1E21A2EAA1BBB1BFD010DC0AA1F8B
:102EB000BB1FEE1FFF1FA217B307E407F50720F0A3
:102EC000A21BB30BE40BF50B661F771F881F991F1E
:102ED0001A9469F760957095809590959B01AC0167
:102EE000BD01CF01089597FB092E05260ED057FD91
:102EF00004D0D7DF0AD0001C38F4509540953095A7
:102F000021953F4F4F4F5F4F0895F6F7909580956D
:102F1000709561957F4F8F4F9F4F0895AA1BBB1BE4
:102F200051E107C0AA1FBB1FA617B70710F0A61BC9
:102F3000B70B881F991F5A95A9F780959095BC01EA
:102F4000CD0108952F923F924F925F926F927F92A0
:102F50008F929F92AF92BF92CF92DF92EF92FF92A9
:102F60000F931F93CF93DF93CDB7DEB7CA1BDB0B55
:102F70000FB6F894DEBF0FBECDBF09942A883988FA
:102F800048885F846E847D848C849B84AA84B98401
:102F9000C884DF80EE80FD800C811B81AA81B9810D
:102FA000CE0FD11D0FB6F894DEBF0FBECDBFED0121
:102FB0000895EE0FFF1F0590F491E02D09942F92D4
:102FC0003F925F926F927F928F929F92AF92BF9249
:102FD000CF92DF92EF92FF920F931F93CF93DF93E5
:102FE0008C011B01EA016115710519F0FB01918348
:102FF0008083209749F0CE010297839728F020E044
:1030000030E040E050E0F6C0F801A1908F018A2D39
:1030100090E00E942C19892BB9F7FDE2AF1631F42C
:10302000F801A1908F015524539407C0FBE2AF161D
:1030300019F4F801A1908F015524209719F0C0319F
:10304000D105C1F4F0E3AF1679F4F8018081883737
:1030500011F0883549F4F801A1800E5F1F4FF2E0AE
:103060005F2AC0E1D0E006C0209721F480E3A816D3
:10307000E9F427C0C830D10531F1C930D10524F4B5
:10308000C230D10531F50CC0CA30D10589F0C0314C
:10309000D105F9F4C12CD12CE12CB8E0FB2E28C0CD
:1030A000C12CD12CE12CA0E4FA2E22C0CAE0D0E041
:1030B000FCECCF2EFCECDF2EFCECEF2EFCE0FF2E28
:1030C00017C0C8E0D0E0C12CD12CE12CE0E1FE2EED
:1030D0000FC09E01442737FD4095542F60E070E0FB
:1030E00080E090E80E945117C901DA016C017D016E
:1030F00020E030E040E050E060E03E01882477FCD2
:103100008094982C70EDB72EBA0CE9E0EB1570F4B2
:103110008A2D81548A3118F499ECB92E06C08A2D73
:1031200081568A3150F589EAB82EBA0C8B2D90E081
:103130008C179D0714F56F3FE1F0C216D306E40625
:10314000F506B0F0CA01B901A40193010E947B19F0
:103150009B01AC012B0D311D411D511D2130F0E0B3
:103160003F07F0E04F07F0E85F0710F461E001C0AF
:103170006FEFF801A1908F01C5CF2114310481F0C8
:10318000662331F001501040F1011183008308C023
:1031900051FE1AC002501040F1011183008314C087
:1031A00067FF12C050FC05C02FEF3FEF4FEF5FE706
:1031B00004C020E030E040E050E882E290E09093EC
:1031C000AA068093A90616C050FE08C050954095E7
:1031D000309521953F4F4F4F5F4F0CC057FF0AC0AE
:1031E00082E290E09093AA068093A9062FEF3FEF2A
:1031F0004FEF5FE7B901CA01DF91CF911F910F91A6
:10320000FF90EF90DF90CF90BF90AF909F908F9006
:103210007F906F905F903F902F900895FC018827DA
:103220009927E89421912032E9F3293010F02E30CB
:10323000C8F32B3241F02D3239F4689404C00E9457
:103240007019820F911D219120532A30C0F31EF472
:10325000909581959F4F089591114AC0803219F041
:1032600089508550D0F70895FB01DC0101900D9243
:103270000020E1F70895FB01DC014150504030F09F
:103280008D910190801919F40020B9F7881B990BD2
:103290000895FA01A191B081009719F41097E1F017
:1032A000CD01DC01CD010D90002011F4C00113C04F
:1032B000FB012191222319F02015D9F7F3CFFB014F
:1032C0002191201519F41E92119606C02223C1F7F0
:1032D0000D900020A1F7D001FA01A193B0830895C9
:1032E0007AE0979F902D879F802D910D112408954E
:1032F000992788270895629FD001739FF001829FCC
:10330000E00DF11D649FE00DF11D929FF00D839F74
:10331000F00D749FF00D659FF00D9927729FB00D11
:10332000E11DF91F639FB00DE11DF91FBD01CF0124
:0833300011240895F894FFCF69
:1033380024504D544B3331342C302C352C302C3513
:103348002C302C302C302C302C302C302C302C3095
:103358002C302C302C302C302C302A32380D0A00EE
:1033680024504D544B3331332C302A32460D0A0049
:103378004750524D4300475047474100653A2000A7
:103388002C000D0A002E00000000000000000000C4
:1033980001020203030303040404040404040405EF
:1033A80005050505050505050505050505050506C4
:1033B80006060606060606060606060606060606A5
:1033C8000606060606060606060606060606060794
:1033D8000707070707070707070707070707070775
:1033E8000707070707070707070707070707070765
:1033F8000707070707070707070707070707070755
:103408000707070707070707070707070707070843
:103418000808080808080808080808080808080824
:103428000808080808080808080808080808080814
:103438000808080808080808080808080808080804
:1034480008080808080808080808080808080808F4
:1034580008080808080808080808080808080808E4
:1034680008080808080808080808080808080808D4
:1034780008080808080808080808080808080808C4
:10348800080808080808080808080808080808506C
:0E34980002010100000000B10F8B10A3100014
:00000001FF
