:10000000C1C0E5C0E4C0E3C0E2C0E1C0E0C0DFC001
:10001000DEC006C1DCC079C1DAC0D9C0D8C0D7C043
:10002000D6C0D5C0D4C0005EBCE2613FDD83C29CB7
:100030007E20A3FD1F419DC3217FFCA2401E5F01C6
:10004000E3BD3E6082DC237D9FC1421CFEA0E1BF78
:100050005D0380DE3C62BEE0025CDF81633D7C22AA
:10006000C09E1D43A1FF4618FAA427799BC584DAD8
:100070003866E5BB5907DB856739BAE40658194786
:10008000A5FB7826C49A653BD987045AB8E6A7F938
:100090001B45C6987A24F8A6441A99C7257B3A646A
:1000A00086D85B05E7B98CD2306EEDB3510F4E1098
:1000B000F2AC2F7193CD114FADF3702ECC92D38D46
:1000C0006F31B2EC0E50AFF1134DCE90722C6D33F8
:1000D000D18F0C52B0EE326C8ED0530DEFB1F0AE2A
:1000E0004C1291CF2D73CA947628ABF51749085658
:1000F000B4EA6937D58B5709EBB536688AD495CB06
:100100002977F4AA4816E9B7550B88D6346A2B75B7
:1001100097C94A14F6A8742AC896154BA9F7B6E8E9
:100120000A54D7896B3500000000370034003100D5
:1001300000000000380035003200000000003600EA
:100140003300300004040404040404040202020224
:10015000020203030303030301020408102040808A
:100160000102040810200102040810200000000011
:100170000000000000030405000000000000000073
:10018000E8003A0211241FBECFE5D4E0DEBFCDBFA8
:1001900010E0A0E6B0E0ECE0FDE002C005900D92BA
:1001A000A037B107D9F711E0A0E7B0E001C01D9278
:1001B000A334B107E1F711E0C4E8D1E003C022970E
:1001C000FE019ED5C038D107D1F726D09DC518CFE6
:1001D0000F931F9300E710E0C80162E0E5D48EE7BB
:1001E00090E0B801BDD181E990E060E070E0B8D165
:1001F0001F910F91089581E391E060E670E0A8D12E
:10020000089581E391E040E855E260E070E0B8D005
:100210008EE790E08CD2089559D0F3DFECDFFECF6B
:100220001F920F920FB60F9211242F933F938F932B
:100230009F93AF93BF938091A8009091A900A09144
:10024000AA00B091AB003091AC000196A11DB11D88
:10025000232F2D5F2D3720F02D570196A11DB11DA5
:100260002093AC008093A8009093A900A093AA00CB
:10027000B093AB008091A4009091A500A091A6003E
:10028000B091A7000196A11DB11D8093A400909389
:10029000A500A093A600B093A700BF91AF919F9136
:1002A0008F913F912F910F900FBE0F901F90189537
:1002B000019759F0FC01EE0FFF1FEE0FFF1F329761
:1002C0008FB7F8943197F1F78FBF0895789483B77B
:1002D000826083BF83B7816083BF89B7816089BF34
:1002E0008EB582608EBD8EB581608EBD8FB581600A
:1002F0008FBD85B5846085BD85B5806485BD329A26
:10030000319A309A379A1AB808951F920F920FB601
:100310000F9211242F933F934F935F936F937F938B
:100320008F939F93AF93BF93EF93FF934CB1E09163
:100330002D01F0912E01CF01019660E870E07AD492
:100340009C0180912F01909130012817390739F0D5
:10035000E355FF4F408330932E0120932D01FF91F1
:10036000EF91BF91AF919F918F917F916F915F912D
:100370004F913F912F910F900FBE0F901F901895A6
:10038000AF92BF92CF92DF92EF92FF920F931F93A3
:10039000CF93DF936C017A018B01DC011496AD9051
:1003A000BC901597CB01BA0122E030E040E050E06C
:1003B00076D4205C3D4B404F5F4FCA01B901A80184
:1003C00097016DD4C901DA010197A109B109292F5B
:1003D0003A2F4B2F552747FD5A950196A11DB11D68
:1003E000E5012883E601EE81FF8181508083EA8563
:1003F000FB85208141E050E0CA010E8402C0880FD5
:10040000991F0A94E2F7282B2083EA85FB85208137
:10041000CA010F8402C0880F991F0A94E2F7282BA3
:100420002083EA85FB858081088802C0440F551F20
:100430000A94E2F7842B8083DF91CF911F910F9173
:10044000FF90EF90DF90CF90BF90AF900895FC01A8
:10045000A085B18521898C9190E0022E02C09595EE
:1004600087950A94E2F780FFF6CF0484F585E02DA6
:100470006083089589E690E0909332018093310182
:100480008DEA90E0909334018093330180E490E012
:10049000909336018093350189E290E09093380182
:1004A000809337018BE290E090933A018093390179
:1004B0008AE290E090933C0180933B018CE290E0D3
:1004C00090933E0180933D0184E080933F0183E05F
:1004D0008093400187E08093410185E08093420151
:1004E00008950F931F93CF93DF938C01EB0109C005
:1004F0002196D801ED91FC910190F081E02DC80189
:10050000099568816623A1F7DF91CF911F910F9123
:100510000895EF92FF920F931F93CF93DF938C0177
:100520007B01EA010CC0D7016D917D01D801ED91ED
:10053000FC910190F081E02DC80109952197209749
:1005400091F7DF91CF911F910F91FF90EF90089558
:10055000DC01ED91FC910280F381E02D0995089575
:10056000FC0180EC92E0928B818B76836583148210
:10057000108289E090E09283818381E083830895F3
:100580000895EF92FF920F931F938C017B01FC0162
:100590008581968131D2F80185819681B7010DD28E
:1005A000F8018581968164EB40E0C8D1F80185812E
:1005B000968146D1F82EF801858196811DD280E082
:1005C000FF2009F481E01F910F91FF90EF900895B3
:1005D000CF92DF92EF92FF920F931F938C016B01EA
:1005E0007A01FC018581968107D2F8018581968187
:1005F000B601E3D1F801858196816EEB40E09ED192
:10060000F801858196814DD1F7018083F8018581BC
:10061000968147D1F7018183F8018581968141D187
:10062000F7018283F801858196813BD1F7018383AD
:10063000F8018581968135D1F7018483F8018581A0
:1006400096812FD1F7018583F8018581968129D183
:10065000F7018683F8018581968123D1F70187838D
:10066000F801858196811DD1F7018087F801858188
:100670009681C2D11F910F91FF90EF90DF90CF90A4
:1006800008950F931F938A01A3DFC80168E0C7D0C4
:1006900020E0F8019085891709F421E0822F1F914D
:1006A0000F910895DF93CF93CDB7DEB729970FB69B
:1006B000F894DEBF0FBECDBF9C01FB01808180316D
:1006C000D1F0C901AE014F5F5F4FDBDF8823A9F096
:1006D0008D818F3371F0803418F48F3171F40BC039
:1006E0008F3519F08F3749F402C08BE007C08CE0DA
:1006F00005C08AE003C089E001C080E029960FB6FA
:10070000F894DEBF0FBECDBFCF91DF9108950F9358
:100710001F938B01CB0167E082D020E0F801978125
:10072000891709F421E0822F1F910F9108959F925C
:10073000AF92BF92CF92DF92EF92FF920F931F93EF
:10074000DF93CF93CDB7DEB761970FB6F894DEBFD6
:100750000FBECDBF7C01FC018581968153D0F7018E
:1007600014826E010894C11CD11C79E0A72EB12C13
:10077000AC0EBD1E992493942CC0C701B601C7DFEF
:10078000882339F1F7018081882339F4C701B60144
:10079000F8DE882311F0F7019082C701B601A501A8
:1007A00017DFF70101811281C701B6017BDF90E0FD
:1007B0008017910724F4F7018181928104C0C70159
:1007C000B60170DF90E0F7018183928384818F5FAF
:1007D0008483F70185819681B60155D1882369F616
:1007E00061960FB6F894DEBF0FBECDBFCF91DF91FB
:1007F0001F910F91FF90EF90DF90CF90BF90AF903F
:100800009F900895FC0113861586148687E090E07A
:1008100012863197009711F00197FACF0895DC0105
:1008200080E00BC0E82FF0E08D9190E0E827F927F9
:10083000EA5DFF4FE49161508E2F662399F708958A
:10084000DF92EF92FF920F931F93FC01E0800181F2
:100850001281F894F80181818E2981838281DE2CB6
:10086000D0948D21828383E090E022DDF8018181A4
:100870008D2181838AE090E01BDDF801008178946E
:1008800085E390E015DD80E010E0FF240E211F21BC
:10089000012B09F081E01F910F91FF90EF90DF9005
:1008A0000895EF92FF920F931F93CF93DF937C01F4
:1008B00001E010E0C0E0D0E0C701C2DF8111102BE1
:1008C000000F2196C830D105B9F7812FDF91CF9164
:1008D0001F910F91FF90EF9008951F93CF93DF9397
:1008E000FC011081C181D281912F909560FF11C0D0
:1008F000F8948A8189238A838981812B89838AE07C
:1009000090E0D6DC8A81812B8A83789487E390E01B
:1009100010C0F8948A8189238A838981812B8983F5
:1009200081E490E0C5DC8A81812B8A83789485E01C
:1009300090E0BEDCDF91CF911F910895CF92DF92BE
:10094000EF92FF920F931F93CF93DF938C01E42ECE
:10095000FF24F394C0E0D0E0C62EDD2460E08F2DAC
:1009600090E08C219D21892B09F061E0C801B5DF61
:10097000FF0C2196C830D10589F7EE20A9F4F89430
:10098000D8011196ED91FC91129791818C918095EF
:10099000982391831196ED91FC91129792818C91FD
:1009A0008095982392837894DF91CF911F910F9136
:1009B000FF90EF90DF90CF900895EF92FF920F930A
:1009C0001F93CF93DF938C017B0165E540E0B6DF99
:1009D000C0E0D0E0F701EC0FFD1FC801608140E0EE
:1009E000ADDF2196C830D105A9F7DF91CF911F91D6
:1009F0000F91FF90EF900895DF92EF92FF920F9387
:100A00001F93CF93DF93FC010081C181D281F894C1
:100A10008981D02ED0948D21898378941DE7E02E92
:100A2000FF24115039F182E090E042DC888190E0AF
:100A30008E219F21892BA9F3F8948A818D218A83A5
:100A40008981802B8983789484EF91E031DCF8945C
:100A500089818D21898380E590E02ADC888110E0FE
:100A600090E0E822F922EF2809F411E0789484EA72
:100A700091E01EDC812FDF91CF911F910F91FF90AC
:100A8000EF90DF900895AF92BF92DF92EF92FF92C6
:100A90000F931F93CF93DF93EC015B018D85882328
:100AA00009F05CC0CE01A8DF882329F41B861D86CF
:100AB0001C8690E067C0CE0160EF40E03FDFFF247E
:100AC000F39401E0DD24EE24CE01BADE182FCE012E
:100AD000B7DE113019F48130E1F438C0181709F588
:100AE0008B85081770F460E0FE01EE0DF11D838127
:100AF00090E02F2D30E082239323181619064CF036
:100B000003C060E0081729F0093008F04BC00C87DB
:100B100049C0FE01EE0DF11D83818F29838361E0C1
:100B200009C0612FFE01EE0DF11D9F2D909583816F
:100B300089238383CE01D1DE0F5FFF0C19F4E39488
:100B4000FF24F39487E08E1508F0BECF013430F017
:100B5000DB86DD2011F581E08D871FC01B861D8699
:100B60001C8690E0DE0120E030E0F501E20FF31F8B
:100B700013968C91139780832F5F3F4F11962830E7
:100B8000310599F7892FDF91CF911F910F91FF9038
:100B9000EF90DF90BF90AF9008958B818823F1F2A2
:100BA00091E0E0CFD02EBECFFF920F931F938C0128
:100BB000F62E862F60E01ED08F2D90E0FC01E85AC3
:100BC000FE4FE491D801EC938C5B9E4FFC01649145
:100BD000E62FF0E0EE0FFF1FE65CFE4F859194914B
:100BE00012969C938E931197C8010CDE1F910F9162
:100BF000FF900895282F30E0C901885A9E4FFC01CC
:100C000094912C5B3E4FF9018491882391F0E82F59
:100C1000F0E0EE0FFF1FEA5DFE4FA591B491662351
:100C200029F48C91909589238C9308958C91892B2C
:100C30008C93089597FB092E07260AD077FD04D0E0
:100C400049D006D000201AF4709561957F4F089521
:100C5000F6F7909581959F4F0895A1E21A2EAA1B51
:100C6000BB1BFD010DC0AA1FBB1FEE1FFF1FA2175C
:100C7000B307E407F50720F0A21BB30BE40BF50B59
:100C8000661F771F881F991F1A9469F760957095E2
:100C9000809590959B01AC01BD01CF01089597FB14
:100CA000092E05260ED057FD04D0D7DF0AD0001C30
:100CB00038F450954095309521953F4F4F4F5F4FF9
:100CC0000895F6F790958095709561957F4F8F4FB9
:100CD0009F4F0895AA1BBB1B51E107C0AA1FBB1F52
:100CE000A617B70710F0A61BB70B881F991F5A95B8
:100CF000A9F780959095BC01CD010895EE0FFF1FD7
:0C0D00000590F491E02D0994F894FFCFC9
:100D0C005465535400000000002702710289020050
:00000001FF
