:1000000042C066C065C064C063C062C061C060C0F9
:100010005FC0EAC45DC092C55BC05AC059C058C039
:1000200057C084CA55C000000000370034003100BA
:1000300000000000380035003200000000003600EB
:100040003300300004040404040404040202020225
:10005000020203030303030301020408102040808B
:100060000102040810200102040810200000000012
:100070000000000000030405000000000000000074
:1000800069005306990911241FBECFE5D4E0DEBFF5
:10009000CDBF10E0A0E6B0E0EAE7FBE102C00590CA
:1000A0000D92A838B107D9F711E0A8E8B0E001C077
:1000B0001D92A439B107E1F710E0C6E8D0E003C013
:1000C0002297FE012EDCC038D107D1F789D453CD59
:1000D00097CF88E890E068E0E3D808951F9388E818
:1000E00090E006D888E890E064EA70E0E2D788E81B
:1000F00090E064E441E09ED788E890E0F9D78093EF
:10010000970088E890E064EA70E0D3D788E890E050
:100110006EEB40E08FD7109296000DC088E890E01B
:100120003CD7E12FF0E0E856FF4F808380919600A6
:100130008F5F8093960010919600193078F320918C
:10014000980030E03093AF002093AE0040919900CA
:100150004093AC001092AD00942F80E0280F391F1F
:100160003093B7002093B600C901807090789093C7
:10017000B1008093B000892B41F088279927821B1A
:10018000930B9093B7008093B6008091B600909146
:10019000B7008E7F23E0880F991F2A95E1F7209101
:1001A0009E00821B91090C969093B7008093B60035
:1001B0009C0194E0359527959A95E1F72093B2003C
:1001C0001092B30090E08F7090709093B500809380
:1001D000B4001F9108950F931F930DE711E0C8011C
:1001E0006DE070E083D8C80161E870E0CAD880E1B2
:1001F00090E09093C7008093C600C80160E170E072
:10020000C0D8C801C0D8C8016DE070E06FD8C8017F
:1002100061E870E0B6D81092C7001092C600C8011D
:1002200060E070E0AED8C801AED81F910F9108957C
:100230000F931F930DE711E0C8016DE070E056D8F1
:10024000C8016AE870E09DD86091C2007091C30057
:10025000C80197D8C80197D8C8016DE070E046D8AA
:10026000C8016BE870E08DD860917B0070917C00D4
:10027000C80187D8C80187D81F910F9108950F939F
:100280001F930DE711E0C8016DE070E02FD8C801A1
:1002900068E870E076D86091770070917800C801C6
:1002A00070D8C80170D8C8016DE070E01FD8C801CF
:1002B00069E870E066D86091790070917A00C801B1
:1002C00060D8C80160D81F910F9108950F931F93B4
:1002D0000DE711E0C8016DE070E008D8C80165E8DD
:1002E00070E04FD86091C0007091C100C80149D83A
:1002F000C80149D8C8016DE070E0F8D7C80166E8C8
:1003000070E03FD86091730070917400C80139D8D3
:10031000C80139D8C8016DE070E0E8D7C80167E8C6
:1003200070E02FD86091750070917600C80129D8CF
:10033000C80129D81F910F9108950F931F930DE7BE
:1003400011E0C8016DE070E0D1D7C80162E870E04B
:1003500018D86091BC007091BD00C80112D8C801C6
:1003600012D8C8016DE070E0C1D7C80163E870E041
:1003700008D86091710070917200C80102D8C8015C
:1003800002D8C8016DE070E0B1D7C80164E870E040
:10039000F8D76091BE007091BF00C801F2D7C801C4
:1003A000F2D71F910F9108958DE791E06DE070E015
:1003B0009DD78DE791E060EB70E0E3D78DE791E0AA
:1003C0006FE870E0DED78DE791E0DDD78DE791E053
:1003D0006DE070E041E050E0F5D78DE791E090D717
:1003E000882339F08DE791E091D78093B80010927F
:1003F000B9008091B8009091B90008958DE791E01F
:100400006DE070E073D78DE791E060EB70E0B9D7F5
:100410008DE791E060E870E0B4D78DE791E0B3D765
:100420008DE791E06DE070E041E050E0CBD78DE7E3
:1004300091E066D7882339F08DE791E067D7809304
:10044000C4001092C50008950F931F93D7DF8091C9
:10045000C4009091C50081609093C5008093C40052
:100460000DE711E0C8016DE070E040D7C80160E819
:1004700070E087D76091C4007091C500C80181D732
:10048000C80181D71F910F9108950F931F93B6DF75
:100490008091C4009091C500897F90708660909390
:1004A000C5008093C4000DE711E0C8016DE070E065
:1004B0001DD7C80160E870E064D76091C4007091F6
:1004C000C500C8015ED7C8015ED71F910F9108957E
:1004D0000F931F9393DF8091C4009091C5008F709C
:1004E0009070806B9093C5008093C4000DE711E07D
:1004F000C8016DE070E0FAD6C80160E870E041D74D
:100500006091C4007091C500C8013BD7C8013BD7BA
:100510001F910F9108950F931F9370DF8091C40076
:100520009091C5008F70907080649093C500809307
:10053000C4000DE711E0C8016DE070E0D7D6C80136
:1005400060E870E01ED76091C4007091C500C801DA
:1005500018D7C80118D71F910F9108950F931F93B3
:100560004DDF8091C4009091C5008F7090708062C3
:100570009093C5008093C4000DE711E0C8016DE0C1
:1005800070E0B4D6C80160E870E0FBD66091C400AA
:100590007091C500C801F5D6C801F5D61F910F911D
:1005A00008950F931F932ADF8091C4009091C50096
:1005B0008F70907080619093C5008093C4000DE7A8
:1005C00011E0C8016DE070E091D6C80160E870E00C
:1005D000D8D66091C4007091C500C801D2D6C801B8
:1005E000D2D61F910F91089581E691E040E051EE3F
:1005F00060E070E0DED28DE791E0E6D6329A319885
:10060000309888EB9EE1A5E0B0E08093D000909315
:10061000D100A093D200B093D30085E090E09093F6
:10062000BD008093BC008EE190E0909372008093B7
:10063000710088EB90E09093BF008093BE00CBDD0B
:1006400047DF23DF01DF79DE41DE19DEF1DDA9DFDF
:1006500087E061E053D288E890E064EA70E08FD5EB
:100660000895EF92FF920F931F938DE791E06DE055
:1006700070E03CD68DE791E060EB70E082D68DE7CC
:1006800091E064E970E07DD68DE791E07CD68DE75E
:1006900091E06DE070E041E050E094D68DE791E0AC
:1006A0002FD6882391F08DE791E030D690E0A0E03E
:1006B000B0E0BA2FA92F982F88278093C800909375
:1006C000C900A093CA00B093CB008DE791E06DE024
:1006D00070E00CD68DE791E060EB70E052D68DE7CC
:1006E00091E065E970E04DD68DE791E04CD68DE75D
:1006F00091E06DE070E041E050E064D68DE791E07C
:10070000FFD58823D1F0E090C800F090C900009197
:10071000CA001091CB008DE791E0F8D590E0A0E001
:10072000B0E08E299F29A02BB12B8093C800909315
:10073000C900A093CA00B093CB008DE791E06DE0B3
:1007400070E0D4D58DE791E060EB70E01AD68DE7CC
:1007500091E066E970E015D68DE791E014D68DE75B
:1007600091E06DE070E041E050E02CD68DE791E043
:10077000C7D5882391F08DE791E0C8D590E0A0E03F
:10078000B0E0BA2FA92F982F88278093CC009093A0
:10079000CD00A093CE00B093CF008DE791E06DE047
:1007A00070E0A4D58DE791E060EB70E0EAD58DE7CD
:1007B00091E067E970E0E5D58DE791E0E4D58DE75C
:1007C00091E06DE070E041E050E0FCD58DE791E014
:1007D00097D58823D1F0E090CC00F090CD00009127
:1007E000CE001091CF008DE791E090D590E0A0E091
:1007F000B0E08E299F29A02BB12B8093CC00909341
:10080000CD00A093CE00B093CF002091C8003091CE
:10081000C9004091CA005091CB00203080E83807D1
:1008200080E0480780E0580780F080E090E0A1E099
:10083000B0E0821B930BA40BB50B8093C800909380
:10084000C900A093CA00B093CB002091CC00309196
:10085000CD004091CE005091CF00203080E8380785
:1008600080E0480780E0580780F080E090E0A1E059
:10087000B0E0821B930BA40BB50B8093CC0090933C
:10088000CD00A093CE00B093CF001F910F91FF90A9
:10089000EF900895EF92FF920F931F935FDE98C041
:1008A00083DD81FFFDCFDDDE8091BA009091BB003A
:1008B00001969093BB008093BA0005970CF487C013
:1008C00080E007D17C018091C8009091C900A0917F
:1008D000CA00B091CB0062E0B695A7959795879531
:1008E0006A95D1F78093C8009093C900A093CA007D
:1008F000B093CB008091CC009091CD00A091CE0020
:10090000B091CF0052E0B695A795979587955A95E7
:10091000D1F78093CC009093CD00A093CE00B093FC
:10092000CF0081E691E060E670E02BD24091C800F4
:100930005091C9006091CA007091CB0081E691E0AE
:10094000BED281E691E064E670E01BD24091CC001B
:100950005091CD006091CE007091CF0081E691E082
:10096000AED281E691E064E670E00BD2B7DB609135
:10097000B2007091B30081E691E0CAD281E691E0C5
:1009800066E670E0FED16091B4007091B50081E63A
:1009900091E0BED281E691E064E670E0F2D10027FA
:1009A000F7FC0095102FC801B70124E030E040E0CB
:1009B00050E086D781E691E0BA01A90183D281E6B1
:1009C00091E068E670E0DDD182B3805882BBA3DDA0
:1009D000EBDC82FF65CF1F910F91FF90EF900895A0
:1009E00059D002DE57DFFECF1F920F920FB60F9243
:1009F00011242F933F938F939F93AF93BF93809135
:100A0000D8009091D900A091DA00B091DB0030912C
:100A1000DC000196A11DB11D232F2D5F2D3720F085
:100A20002D570196A11DB11D2093DC008093D800A5
:100A30009093D900A093DA00B093DB008091D400AA
:100A40009091D500A091D600B091D7000196A11D3C
:100A5000B11D8093D4009093D500A093D600B0939D
:100A6000D700BF91AF919F918F913F912F910F90A0
:100A70000FBE0F901F901895019759F0FC01EE0FD3
:100A8000FF1FEE0FFF1F32978FB7F8943197F1F7E2
:100A90008FBF0895789483B7826083BF83B78160E6
:100AA00083BF89B7816089BF8EB582608EBD8EB5E8
:100AB00081608EBD8FB581608FBD85B5846085BD39
:100AC00085B5806485BD329A319A309A379A1AB8C2
:100AD0000895877090917D009295990F990F907C61
:100AE000982B97B9369A3699FECF24B145B1942FF9
:100AF00080E030E0282B392BC9010895282F30E001
:100B0000C901885A9F4FFC0194912C5B3F4FF9011A
:100B10008491882391F0E82FF0E0EE0FFF1FEA5D4B
:100B2000FF4FA591B491662329F48C919095892368
:100B30008C9308958C91892B8C9308951F920F921A
:100B40000FB60F9211242F933F934F935F936F93A0
:100B50007F938F939F93AF93BF93EF93FF934CB18A
:100B6000E0915D01F0915E01CF01019660E870E0D7
:100B700072D69C0180915F0190916001281739071E
:100B800039F0E352FF4F408330935E0120935D01C3
:100B9000FF91EF91BF91AF919F918F917F916F9155
:100BA0005F914F913F912F910F900FBE0F901F902B
:100BB0001895AF92BF92CF92DF92EF92FF920F9370
:100BC0001F93CF93DF936C017A018B01DC011496A4
:100BD000AD90BC901597CB01BA0122E030E040E027
:100BE00050E06ED6205C3D4B404F5F4FCA01B901CB
:100BF000A801970165D6C901DA010197A109B109D8
:100C0000292F3A2F4B2F552747FD5A950196A11DA5
:100C1000B11DE5012883E601EE81FF8181508083CB
:100C2000EA85FB85208141E050E0CA010E8402C0C4
:100C3000880F991F0A94E2F7282B2083EA85FB8509
:100C40002081CA010F8402C0880F991F0A94E2F71D
:100C5000282B2083EA85FB858081088802C0440F09
:100C6000551F0A94E2F7842B8083DF91CF911F9167
:100C70000F91FF90EF90DF90CF90BF90AF900895CD
:100C8000FC01A085B18521898C9190E0022E02C0E3
:100C9000959587950A94E2F780FFF6CF0484F58551
:100CA000E02D6083089582E890E090936201809344
:100CB00061018DED90E0909364018093630180E485
:100CC00090E0909366018093650189E290E09093B3
:100CD0006801809367018BE290E090936A018093B2
:100CE00069018AE290E090936C0180936B018CE241
:100CF00090E090936E0180936D0184E080936F018A
:100D000083E08093700187E08093710185E0809398
:100D1000720108950F931F93CF93DF938C01EB0122
:100D200009C02196D801ED91FC910190F081E02D50
:100D3000C801099568816623A1F7DF91CF911F91C2
:100D40000F910895EF92FF920F931F93CF93DF932C
:100D50008C017B01EA010CC0D7016D917D01D801A6
:100D6000ED91FC910190F081E02DC801099521974A
:100D7000209791F7DF91CF911F910F91FF90EF9006
:100D80000895DC01ED91FC910280F381E02D09953D
:100D900008952F923F924F925F926F927F928F921F
:100DA0009F92AF92BF92CF92DF92EF92FF920F93FA
:100DB0001F93DF93CF93CDB7DEB7A0970FB6F8940C
:100DC000DEBF0FBECDBF1C016A017B01411551057D
:100DD0006105710549F4DC01ED91FC910190F08110
:100DE000E02D60E3099552C0882499245401422ED5
:100DF00055246624772401E010E00C0F1D1F080D18
:100E0000191DC701B601A301920138D5F80160830D
:100E10000894811C911CA11CB11CC701B601A3013F
:100E200092012CD5C901DA016C017D01C114D104F4
:100E3000E104F10401F781E0E82EF12CEC0EFD1E37
:100E4000E80CF91C3E010894611C711CD501C40119
:100E50000197A109B1096C01C818D90814C0F6019D
:100E6000EE0DFF1D60816A3010F4605D01C0695CA9
:100E7000D101ED91FC910190F081E02DC101099526
:100E80000894E108F1086E147F0449F7A0960FB6A4
:100E9000F894DEBF0FBECDBFCF91DF911F910F91B0
:100EA000FF90EF90DF90CF90BF90AF909F908F908A
:100EB0007F906F905F904F903F902F9008952AE021
:100EC00068DF0895EF92FF920F931F93CF93DF9304
:100ED000EC017A018B0177FF0FC0E881F981019065
:100EE000F081E02D6DE2099510950095F094E09465
:100EF000E11CF11C011D111DCE01B801A7012AE062
:100F000048DFDF91CF911F910F91FF90EF900895EF
:100F1000AB01662757FD6095762FD4DF0895FC015D
:100F200013861586148687E090E012863197009725
:100F300011F00197FACF0895DF92EF92FF920F938D
:100F40001F93FC01E08001811281F894F8018181F6
:100F50008E2981838281DE2CD0948D21828383E04F
:100F600090E08ADDF80181818D2181838AE090E023
:100F700083DDF8010081789485E390E07DDD80E0F9
:100F800010E0FF240E211F21012B09F081E01F91A9
:100F90000F91FF90EF90DF900895EF92FF920F93E3
:100FA0001F93CF93DF937C0101E010E0C0E0D0E01D
:100FB000C701C2DF8111102B000F2196C830D10567
:100FC000B9F7812FDF91CF911F910F91FF90EF9093
:100FD00008951F93CF93DF93FC011081C181D281CB
:100FE000912F909560FF11C0F8948A8189238A839C
:100FF0008981812B89838AE090E03EDD8A81812B83
:101000008A83789487E390E010C0F8948A818923DA
:101010008A838981812B898381E490E02DDD8A8117
:10102000812B8A83789485E090E026DDDF91CF9153
:101030001F910895CF92DF92EF92FF920F931F932B
:10104000CF93DF938C01E42EFF24F394C0E0D0E033
:10105000C62EDD2460E08F2D90E08C219D21892B10
:1010600009F061E0C801B5DFFF0C2196C830D10559
:1010700089F7EE20A9F4F894D8011196ED91FC912E
:10108000129791818C918095982391831196ED917F
:10109000FC91129792818C918095982392837894F9
:1010A000DF91CF911F910F91FF90EF90DF90CF9044
:1010B0000895EF92FF920F931F93CF93DF938C01CC
:1010C0007B0165E540E0B6DFC0E0D0E0F701EC0F62
:1010D000FD1FC801608140E0ADDF2196C830D10519
:1010E000A9F7DF91CF911F910F91FF90EF90089595
:1010F000DF92EF92FF920F931F93CF93DF93FC0148
:101100000081C181D281F8948981D02ED0948D2123
:10111000898378941DE7E02EFF24115039F182E095
:1011200090E0AADC888190E08E219F21892BA9F391
:10113000F8948A818D218A838981802B8983789490
:1011400084EF91E099DCF89489818D21898380E591
:1011500090E092DC888110E090E0E822F922EF280C
:1011600009F411E0789484EA91E086DC812FDF9124
:10117000CF911F910F91FF90EF90DF900895AF9264
:10118000BF92DF92EF92FF920F931F93CF93DF9363
:10119000EC015B018D85882309F05CC0CE01A8DFDE
:1011A000882329F41B861D861C8690E067C0CE012B
:1011B00060EF40E03FDFFF24F39401E0DD24EE2404
:1011C000CE01BADE182FCE01B7DE113019F481300E
:1011D000E1F438C0181709F58B85081770F460E042
:1011E000FE01EE0DF11D838190E02F2D30E0822372
:1011F0009323181619064CF003C060E0081729F075
:10120000093008F04BC00C8749C0FE01EE0DF11DFE
:1012100083818F29838361E009C0612FFE01EE0D78
:10122000F11D9F2D9095838189238383CE01D1DE8B
:101230000F5FFF0C19F4E394FF24F39487E08E15FD
:1012400008F0BECF013430F0DB86DD2011F581E0FF
:101250008D871FC01B861D861C8690E0DE0120E066
:1012600030E0F501E20FF31F13968C911397808302
:101270002F5F3F4F11962830310599F7892FDF9165
:10128000CF911F910F91FF90EF90DF90BF90AF90A3
:1012900008958B818823F1F291E0E0CFD02EBECF6C
:1012A000FF920F931F938C01F62E862F60E026DCB1
:1012B0008F2D90E0FC01E85AFF4FE491D801EC93A8
:1012C0008C5B9F4FFC016491E62FF0E0EE0FFF1F57
:1012D000E65CFF4F8591949112969C938E931197A3
:1012E000C8011DDE1F910F91FF90089581E080934A
:1012F0007C016093770110927A0110927B0108952E
:101300008091760190917501891B089590917501E6
:1013100080917601981710F080E00895E0917301B4
:10132000F0917401E90FF11D80819F5F9093750129
:1013300008950895DF93CF930F92CDB7DEB76983F9
:1013400080917C018823A9F080917B018032A8F4F0
:1013500080917A01E0917801F0917901E80FF11D17
:10136000608380917A018F5F80937A0180937B0103
:1013700004C0CE01019661E0BCD00F90CF91DF9107
:101380000895D8DF08956091780170917901809176
:10139000770140917B0121E068D010927A01109290
:1013A0007B0110927C010895862F609173017091EA
:1013B0007401413208F040E223D01092750180930D
:1013C00076010895F1DF089580E290E061E070E039
:1013D000ACD28093730190937401109275011092B6
:1013E000760180E290E061E070E09FD28093780126
:1013F0009093790110927A0110927B0106D20895A0
:10140000982F413210F040E02EC080917E01882359
:10141000E1F781E080937E018FEF80938F0110923E
:10142000860140938701990F916090937F0185EE2B
:1014300086BF80917E018130E1F38091860184171F
:1014400010F440918601A0918401B091850120E0C3
:1014500030E007C0FB01E20FF31F8D9180832F5F07
:101460003F4F2417B8F3842F08951F93582F122F3E
:10147000413210F081E03BC080917E018823E1F78A
:1014800082E080937E018FEF80938F01109286011E
:1014900040938701A0918401B0918501FB0102C0B6
:1014A00081918D938E2F861B8417D0F3852F90E02A
:1014B000880F991F80937F0185EE86BF112321F04D
:1014C00080917E018230E1F380918F018F3F11F492
:1014D00080E00DC080918F01803211F482E007C05E
:1014E00080918F01803311F084E001C083E01F916F
:1014F0000895482F613210F081E0089580917E01B7
:10150000843011F082E0089560938B01A0918801EE
:10151000B0918901842F9C01F90102C081918D93C2
:101520008E2F841B8617D0F380E008951F920F92B0
:101530000FB60F9211242F933F934F935F936F93A6
:101540007F938F939F93AF93BF93EF93FF9381B15B
:1015500090E0887F90708036910509F4D6C081367E
:101560009105CCF58832910509F47AC0893291054C
:10157000B4F48031910509F46FC0813191053CF4D8
:10158000009709F428C1089709F02EC165C0883179
:10159000910509F465C0809709F026C17BC08034AD
:1015A000910509F49AC08134910544F48033910582
:1015B00009F479C0C89709F017C17EC0803591053C
:1015C00009F47EC08835910509F48CC088349105F2
:1015D00009F00AC194C08839910509F4F6C0893927
:1015E0009105ECF48837910509F48FC0893791058E
:1015F0004CF48836910509F488C08037910509F0CC
:10160000F3C083C08838910509F4DFC080399105A3
:1016100009F481C08038910509F0E6C07CC0803BA8
:10162000910509F4A5C0813B91054CF4803A9105E0
:1016300009F484C0883A910509F0D6C099C0803C6D
:10164000910509F4C5C0883C910509F4C1C0883BE7
:10165000910509F0C9C0A4C080917F0183B9B3C0CE
:101660009091860180918701981770F4909186017E
:10167000E0918401F0918501E90FF11D808183B92A
:101680009F5F909386019FC085ED86BF06B604FCE0
:10169000FDCFA8C080E280938F0185ED86BF06B69E
:1016A00004FCFDCF9FC080E380938F0185ED86BF52
:1016B00006B604FCFDCF96C088E380938F0188C0F6
:1016C0008091860193B1E0918401F0918501E80F4A
:1016D000F11D90838F5F80938601909186018091A8
:1016E00087016FC08091860193B1E0918401F091F0
:1016F0008501E80FF11D90838F5F8093860185ED52
:1017000086BF06B604FCFDCF6DC083E080937E01EA
:1017100010928E0158C080918E01803208F055C021
:1017200080918E0193B1E0918C01F0918D01E80FD1
:10173000F11D90838F5F80938E0145C080918E0153
:10174000803248F480918E01E0918C01F0918D01FE
:10175000E80FF11D108260918E01E0918201F091FD
:10176000830180918C0190918D0170E0099530C0CA
:1017700084E080937E0110928A0110928B01E091A7
:101780008001F0918101099580918B01882341F4BA
:1017900081E080938B01E0918801F09189011082B2
:1017A00090918A01E0918801F0918901E90FF11D82
:1017B000808183B99F5F90938A0190918A01809183
:1017C0008B01981710F485EC01C085E886BF0CC02A
:1017D00085EC86BF07C010928F0185ED86BF06B6E7
:1017E00004FCFDCF10927E01FF91EF91BF91AF916C
:1017F0009F918F917F916F915F914F913F912F9129
:101800000F900FBE0F901F90189510927E01AC9A0A
:10181000AD9A0898099888E480B985E486BF80E28B
:1018200090E061E070E081D0809384019093850125
:1018300080E290E061E070E078D08093880190933E
:10184000890180E290E061E070E06FD080938C01CC
:1018500090938D01089597FB092E07260AD077FDF6
:1018600004D049D006D000201AF4709561957F4FBE
:101870000895F6F7909581959F4F0895A1E21A2E4D
:10188000AA1BBB1BFD010DC0AA1FBB1FEE1FFF1F24
:10189000A217B307E407F50720F0A21BB30BE40B74
:1018A000F50B661F771F881F991F1A9469F76095BB
:1018B0007095809590959B01AC01BD01CF01089575
:1018C00097FB092E05260ED057FD04D0D7DF0AD08E
:1018D000001C38F450954095309521953F4F4F4F5F
:1018E0005F4F0895F6F790958095709561957F4FBD
:1018F0008F4F9F4F0895AA1BBB1B51E107C0AA1F22
:10190000BB1FA617B70710F0A61BB70B881F991FA0
:101910005A95A9F780959095BC01CD010895EE0FD9
:10192000FF1F0590F491E02D09940F931F93CF931F
:10193000DF93689F8001699F100D789F100D11241F
:10194000C8010DD0EC01009721F060E070E0A80123
:101950000BD1CE01DF91CF911F910F910895CF93BD
:10196000DF93BC018230910510F462E070E0A09139
:101970009201B0919301ED01E0E0F0E040E050E031
:1019800021C0888199818617970769F48A819B8194
:10199000309719F09383828304C0909393018093CE
:1019A0009201FE0134C06817790738F441155105DA
:1019B00019F08417950708F4AC01FE018A819B8118
:1019C0009C01E9012097E9F641155105A9F1CA01E9
:1019D000861B970B049708F4BA01E0E0F0E02AC0F8
:1019E0008D919C91119784179507F9F464177507E9
:1019F00081F412968D919C911397309719F09383EF
:101A0000828304C09093930180939201FD013296EA
:101A10004FC0CA01861B970BFD01E80FF91F6193A8
:101A2000719302978D939C9343C0FD0182819381B2
:101A30009C01D9011097A1F680919001909191019C
:101A4000892B41F480916D0090916E0090939101EB
:101A50008093900140916F005091700041155105A5
:101A600041F44DB75EB780916B0090916C00481BBC
:101A7000590B209190013091910124173507B0F452
:101A8000CA01821B930B8617970780F0AB014E5F4C
:101A90005F4F8417950750F0420F531F50939101E9
:101AA00040939001F9016193719302C0E0E0F0E08E
:101AB000CF01DF91CF910895CF93DF93009709F481
:101AC00050C0EC0122971B821A82A0919201B09122
:101AD0009301109709F140E050E0AC17BD0708F101
:101AE000BB83AA83FE0121913191E20FF31FAE1750
:101AF000BF0779F48D919C911197280F391F2E5FA4
:101B00003F4F3983288312968D919C9113979B8325
:101B10008A834115510571F4D0939301C0939201CA
:101B200020C012968D919C911397AD01009711F0F2
:101B3000DC01D3CFFA01D383C28321913191E20F2B
:101B4000F31FCE17DF0769F488819981280F391FA9
:101B50002E5F3F4FFA01318320838A819B819383DB
:101B60008283DF91CF910895DC0101C06D934150D4
:0A1B70005040E0F70895F894FFCF0D
:101B7A00703A20002C002E000D0A0020009401006B
:101B8A00007D00180038000100FF0010000100006D
:081B9A00000040068A06A206C5
:00000001FF
