:1000000042C066C065C064C063C062C061C060C0F9
:100010005FC0EAC45DC092C55BC05AC059C058C039
:1000200057C084CA55C000000000370034003100BA
:1000300000000000380035003200000000003600EB
:100040003300300004040404040404040202020225
:10005000020203030303030301020408102040808B
:100060000102040810200102040810200000000012
:100070000000000000030405000000000000000074
:1000800069005306990911241FBECFE5D4E0DEBFF5
:10009000CDBF10E0A0E6B0E0EAE7FBE102C00590CA
:1000A0000D92AA38B107D9F711E0AAE8B0E001C073
:1000B0001D92A639B107E1F710E0C6E8D0E003C011
:1000C0002297FE012EDCC038D107D1F789D453CD59
:1000D00097CF8AE890E068E0E3D808951F938AE814
:1000E00090E006D88AE890E066EA70E0E2D78AE815
:1000F00090E064E441E09ED78AE890E0F9D78093ED
:1001000099008AE890E066EA70E0D3D78AE890E048
:100110006EEB40E08FD7109298000DC08AE890E017
:100120003CD7E12FF0E0E656FF4F808380919800A6
:100130008F5F8093980010919800193078F3209188
:100140009A0030E03093B1002093B00040919B00C2
:100150004093AE001092AF00942F80E0280F391F1B
:100160003093B9002093B800C901807090789093C3
:10017000B3008093B200892B41F088279927821B16
:10018000930B9093B9008093B8008091B800909140
:10019000B9008E7F23E0880F991F2A95E1F72091FF
:1001A000A000821B91090C969093B9008093B8002F
:1001B0009C0194E0359527959A95E1F72093B4003A
:1001C0001092B50090E08F7090709093B70080937C
:1001D000B6001F9108950F931F930FE711E0C80118
:1001E0006DE070E083D8C80161E870E0CAD880E1B2
:1001F00090E09093C9008093C800C80160E170E06E
:10020000C0D8C801C0D8C8016DE070E06FD8C8017F
:1002100061E870E0B6D81092C9001092C800C80119
:1002200060E070E0AED8C801AED81F910F9108957C
:100230000F931F930FE711E0C8016DE070E056D8EF
:10024000C8016AE870E09DD86091C4007091C50053
:10025000C80197D8C80197D8C8016DE070E046D8AA
:10026000C8016BE870E08DD860917C0070917D00D2
:10027000C80187D8C80187D81F910F9108950F939F
:100280001F930FE711E0C8016DE070E02FD8C8019F
:1002900068E870E076D86091780070917900C801C4
:1002A00070D8C80170D8C8016DE070E01FD8C801CF
:1002B00069E870E066D860917A0070917B00C801AF
:1002C00060D8C80160D81F910F9108950F931F93B4
:1002D0000FE711E0C8016DE070E008D8C80165E8DB
:1002E00070E04FD86091C2007091C300C80149D836
:1002F000C80149D8C8016DE070E0F8D7C80166E8C8
:1003000070E03FD86091740070917500C80139D8D1
:10031000C80139D8C8016DE070E0E8D7C80167E8C6
:1003200070E02FD86091760070917700C80129D8CD
:10033000C80129D81F910F9108950F931F930FE7BC
:1003400011E0C8016DE070E0D1D7C80162E870E04B
:1003500018D86091BE007091BF00C80112D8C801C2
:1003600012D8C8016DE070E0C1D7C80163E870E041
:1003700008D86091720070917300C80102D8C8015A
:1003800002D8C8016DE070E0B1D7C80164E870E040
:10039000F8D76091C0007091C100C801F2D7C801C0
:1003A000F2D71F910F9108958FE791E06DE070E013
:1003B0009DD78FE791E060EB70E0E3D78FE791E0A6
:1003C0006FE870E0DED78FE791E0DDD78FE791E04F
:1003D0006DE070E041E050E0F5D78FE791E090D715
:1003E000882339F08FE791E091D78093BA0010927B
:1003F000BB008091BA009091BB0008958FE791E017
:100400006DE070E073D78FE791E060EB70E0B9D7F3
:100410008FE791E060E870E0B4D78FE791E0B3D761
:100420008FE791E06DE070E041E050E0CBD78FE7DF
:1004300091E066D7882339F08FE791E067D7809302
:10044000C6001092C70008950F931F93D7DF8091C5
:10045000C6009091C70081609093C7008093C6004A
:100460000FE711E0C8016DE070E040D7C80160E817
:1004700070E087D76091C6007091C700C80181D72E
:10048000C80181D71F910F9108950F931F93B6DF75
:100490008091C6009091C700897F9070866090938C
:1004A000C7008093C6000FE711E0C8016DE070E05F
:1004B0001DD7C80160E870E064D76091C6007091F4
:1004C000C700C8015ED7C8015ED71F910F9108957C
:1004D0000F931F9393DF8091C6009091C7008F7098
:1004E0009070806B9093C7008093C6000FE711E077
:1004F000C8016DE070E0FAD6C80160E870E041D74D
:100500006091C6007091C700C8013BD7C8013BD7B6
:100510001F910F9108950F931F9370DF8091C60074
:100520009091C7008F70907080649093C700809303
:10053000C6000FE711E0C8016DE070E0D7D6C80132
:1005400060E870E01ED76091C6007091C700C801D6
:1005500018D7C80118D71F910F9108950F931F93B3
:100560004DDF8091C6009091C7008F7090708062BF
:100570009093C7008093C6000FE711E0C8016DE0BB
:1005800070E0B4D6C80160E870E0FBD66091C600A8
:100590007091C700C801F5D6C801F5D61F910F911B
:1005A00008950F931F932ADF8091C6009091C70092
:1005B0008F70907080619093C7008093C6000FE7A2
:1005C00011E0C8016DE070E091D6C80160E870E00C
:1005D000D8D66091C6007091C700C801D2D6C801B4
:1005E000D2D61F910F91089583E691E040E051EE3D
:1005F00060E070E0DED28FE791E0E6D6329A319883
:10060000309888EB9EE1A5E0B0E08093D200909313
:10061000D300A093D400B093D50085E090E09093F0
:10062000BF008093BE008EE190E0909373008093B2
:10063000720088EB90E09093C1008093C000CBDD06
:1006400047DF23DF01DF79DE41DE19DEF1DDA9DFDF
:1006500087E061E053D28AE890E066EA70E08FD5E7
:100660000895EF92FF920F931F938FE791E06DE053
:1006700070E03CD68FE791E060EB70E082D68FE7C8
:1006800091E064E970E07DD68FE791E07CD68FE75A
:1006900091E06DE070E041E050E094D68FE791E0AA
:1006A0002FD6882391F08FE791E030D690E0A0E03C
:1006B000B0E0BA2FA92F982F88278093CA00909373
:1006C000CB00A093CC00B093CD008FE791E06DE01C
:1006D00070E00CD68FE791E060EB70E052D68FE7C8
:1006E00091E065E970E04DD68FE791E04CD68FE759
:1006F00091E06DE070E041E050E064D68FE791E07A
:10070000FFD58823D1F0E090CA00F090CB00009193
:10071000CC001091CD008FE791E0F8D590E0A0E0FB
:10072000B0E08E299F29A02BB12B8093CA00909313
:10073000CB00A093CC00B093CD008FE791E06DE0AB
:1007400070E0D4D58FE791E060EB70E01AD68FE7C8
:1007500091E066E970E015D68FE791E014D68FE757
:1007600091E06DE070E041E050E02CD68FE791E041
:10077000C7D5882391F08FE791E0C8D590E0A0E03D
:10078000B0E0BA2FA92F982F88278093CE0090939E
:10079000CF00A093D000B093D1008FE791E06DE03F
:1007A00070E0A4D58FE791E060EB70E0EAD58FE7C9
:1007B00091E067E970E0E5D58FE791E0E4D58FE758
:1007C00091E06DE070E041E050E0FCD58FE791E012
:1007D00097D58823D1F0E090CE00F090CF00009123
:1007E000D0001091D1008FE791E090D590E0A0E08B
:1007F000B0E08E299F29A02BB12B8093CE0090933F
:10080000CF00A093D000B093D1002091CA003091C6
:10081000CB004091CC005091CD00203080E83807CB
:1008200080E0480780E0580780F080E090E0A1E099
:10083000B0E0821B930BA40BB50B8093CA0090937E
:10084000CB00A093CC00B093CD002091CE0030918E
:10085000CF004091D0005091D100203080E838077F
:1008600080E0480780E0580780F080E090E0A1E059
:10087000B0E0821B930BA40BB50B8093CE0090933A
:10088000CF00A093D000B093D1001F910F91FF90A3
:10089000EF900895EF92FF920F931F935FDE98C041
:1008A00083DD81FFFDCFDDDE8091BC009091BD0036
:1008B00001969093BD008093BC0005970CF487C00F
:1008C00080E007D17C018091CA009091CB00A0917B
:1008D000CC00B091CD0062E0B695A795979587952D
:1008E0006A95D1F78093CA009093CB00A093CC0077
:1008F000B093CD008091CE009091CF00A091D00018
:10090000B091D10052E0B695A795979587955A95E5
:10091000D1F78093CE009093CF00A093D000B093F6
:10092000D10083E691E060E670E02BD24091CA00EE
:100930005091CB006091CC007091CD0083E691E0A6
:10094000BED283E691E064E670E01BD24091CE0017
:100950005091CF006091D0007091D10083E691E07A
:10096000AED283E691E064E670E00BD2B7DB609133
:10097000B4007091B50083E691E0CAD283E691E0BD
:1009800067E670E0FED16091B6007091B70083E633
:1009900091E0BED283E691E064E670E0F2D10027F8
:1009A000F7FC0095102FC801B70124E030E040E0CB
:1009B00050E086D783E691E0BA01A90183D283E6AD
:1009C00091E069E670E0DDD182B3805882BBA3DD9F
:1009D000EBDC82FF65CF1F910F91FF90EF900895A0
:1009E00059D002DE57DFFECF1F920F920FB60F9243
:1009F00011242F933F938F939F93AF93BF93809135
:100A0000DA009091DB00A091DC00B091DD00309124
:100A1000DE000196A11DB11D232F2D5F2D3720F083
:100A20002D570196A11DB11D2093DE008093DA00A1
:100A30009093DB00A093DC00B093DD008091D600A2
:100A40009091D700A091D800B091D9000196A11D36
:100A5000B11D8093D6009093D700A093D800B09397
:100A6000D900BF91AF919F918F913F912F910F909E
:100A70000FBE0F901F901895019759F0FC01EE0FD3
:100A8000FF1FEE0FFF1F32978FB7F8943197F1F7E2
:100A90008FBF0895789483B7826083BF83B78160E6
:100AA00083BF89B7816089BF8EB582608EBD8EB5E8
:100AB00081608EBD8FB581608FBD85B5846085BD39
:100AC00085B5806485BD329A319A309A379A1AB8C2
:100AD0000895877090917E009295990F990F907C60
:100AE000982B97B9369A3699FECF24B145B1942FF9
:100AF00080E030E0282B392BC9010895282F30E001
:100B0000C901885A9F4FFC0194912C5B3F4FF9011A
:100B10008491882391F0E82FF0E0EE0FFF1FEA5D4B
:100B2000FF4FA591B491662329F48C919095892368
:100B30008C9308958C91892B8C9308951F920F921A
:100B40000FB60F9211242F933F934F935F936F93A0
:100B50007F938F939F93AF93BF93EF93FF934CB18A
:100B6000E0915F01F0916001CF01019660E870E0D3
:100B700072D69C018091610190916201281739071A
:100B800039F0E152FF4F40833093600120935F01C1
:100B9000FF91EF91BF91AF919F918F917F916F9155
:100BA0005F914F913F912F910F900FBE0F901F902B
:100BB0001895AF92BF92CF92DF92EF92FF920F9370
:100BC0001F93CF93DF936C017A018B01DC011496A4
:100BD000AD90BC901597CB01BA0122E030E040E027
:100BE00050E06ED6205C3D4B404F5F4FCA01B901CB
:100BF000A801970165D6C901DA010197A109B109D8
:100C0000292F3A2F4B2F552747FD5A950196A11DA5
:100C1000B11DE5012883E601EE81FF8181508083CB
:100C2000EA85FB85208141E050E0CA010E8402C0C4
:100C3000880F991F0A94E2F7282B2083EA85FB8509
:100C40002081CA010F8402C0880F991F0A94E2F71D
:100C5000282B2083EA85FB858081088802C0440F09
:100C6000551F0A94E2F7842B8083DF91CF911F9167
:100C70000F91FF90EF90DF90CF90BF90AF900895CD
:100C8000FC01A085B18521898C9190E0022E02C0E3
:100C9000959587950A94E2F780FFF6CF0484F58551
:100CA000E02D6083089583E890E090936401809341
:100CB00063018FED90E0909366018093650180E47D
:100CC00090E0909368018093670189E290E09093AF
:100CD0006A01809369018BE290E090936C018093AC
:100CE0006B018AE290E090936E0180936D018CE23B
:100CF00090E09093700180936F0184E08093710184
:100D000083E08093720187E08093730185E0809394
:100D1000740108950F931F93CF93DF938C01EB0120
:100D200009C02196D801ED91FC910190F081E02D50
:100D3000C801099568816623A1F7DF91CF911F91C2
:100D40000F910895EF92FF920F931F93CF93DF932C
:100D50008C017B01EA010CC0D7016D917D01D801A6
:100D6000ED91FC910190F081E02DC801099521974A
:100D7000209791F7DF91CF911F910F91FF90EF9006
:100D80000895DC01ED91FC910280F381E02D09953D
:100D900008952F923F924F925F926F927F928F921F
:100DA0009F92AF92BF92CF92DF92EF92FF920F93FA
:100DB0001F93DF93CF93CDB7DEB7A0970FB6F8940C
:100DC000DEBF0FBECDBF1C016A017B01411551057D
:100DD0006105710549F4DC01ED91FC910190F08110
:100DE000E02D60E3099552C0882499245401422ED5
:100DF00055246624772401E010E00C0F1D1F080D18
:100E0000191DC701B601A301920138D5F80160830D
:100E10000894811C911CA11CB11CC701B601A3013F
:100E200092012CD5C901DA016C017D01C114D104F4
:100E3000E104F10401F781E0E82EF12CEC0EFD1E37
:100E4000E80CF91C3E010894611C711CD501C40119
:100E50000197A109B1096C01C818D90814C0F6019D
:100E6000EE0DFF1D60816A3010F4605D01C0695CA9
:100E7000D101ED91FC910190F081E02DC101099526
:100E80000894E108F1086E147F0449F7A0960FB6A4
:100E9000F894DEBF0FBECDBFCF91DF911F910F91B0
:100EA000FF90EF90DF90CF90BF90AF909F908F908A
:100EB0007F906F905F904F903F902F9008952AE021
:100EC00068DF0895EF92FF920F931F93CF93DF9304
:100ED000EC017A018B0177FF0FC0E881F981019065
:100EE000F081E02D6DE2099510950095F094E09465
:100EF000E11CF11C011D111DCE01B801A7012AE062
:100F000048DFDF91CF911F910F91FF90EF900895EF
:100F1000AB01662757FD6095762FD4DF0895FC015D
:100F200013861586148687E090E012863197009725
:100F300011F00197FACF0895DF92EF92FF920F938D
:100F40001F93FC01E08001811281F894F8018181F6
:100F50008E2981838281DE2CD0948D21828383E04F
:100F600090E08ADDF80181818D2181838AE090E023
:100F700083DDF8010081789485E390E07DDD80E0F9
:100F800010E0FF240E211F21012B09F081E01F91A9
:100F90000F91FF90EF90DF900895EF92FF920F93E3
:100FA0001F93CF93DF937C0101E010E0C0E0D0E01D
:100FB000C701C2DF8111102B000F2196C830D10567
:100FC000B9F7812FDF91CF911F910F91FF90EF9093
:100FD00008951F93CF93DF93FC011081C181D281CB
:100FE000912F909560FF11C0F8948A8189238A839C
:100FF0008981812B89838AE090E03EDD8A81812B83
:101000008A83789487E390E010C0F8948A818923DA
:101010008A838981812B898381E490E02DDD8A8117
:10102000812B8A83789485E090E026DDDF91CF9153
:101030001F910895CF92DF92EF92FF920F931F932B
:10104000CF93DF938C01E42EFF24F394C0E0D0E033
:10105000C62EDD2460E08F2D90E08C219D21892B10
:1010600009F061E0C801B5DFFF0C2196C830D10559
:1010700089F7EE20A9F4F894D8011196ED91FC912E
:10108000129791818C918095982391831196ED917F
:10109000FC91129792818C918095982392837894F9
:1010A000DF91CF911F910F91FF90EF90DF90CF9044
:1010B0000895EF92FF920F931F93CF93DF938C01CC
:1010C0007B0165E540E0B6DFC0E0D0E0F701EC0F62
:1010D000FD1FC801608140E0ADDF2196C830D10519
:1010E000A9F7DF91CF911F910F91FF90EF90089595
:1010F000DF92EF92FF920F931F93CF93DF93FC0148
:101100000081C181D281F8948981D02ED0948D2123
:10111000898378941DE7E02EFF24115039F182E095
:1011200090E0AADC888190E08E219F21892BA9F391
:10113000F8948A818D218A838981802B8983789490
:1011400084EF91E099DCF89489818D21898380E591
:1011500090E092DC888110E090E0E822F922EF280C
:1011600009F411E0789484EA91E086DC812FDF9124
:10117000CF911F910F91FF90EF90DF900895AF9264
:10118000BF92DF92EF92FF920F931F93CF93DF9363
:10119000EC015B018D85882309F05CC0CE01A8DFDE
:1011A000882329F41B861D861C8690E067C0CE012B
:1011B00060EF40E03FDFFF24F39401E0DD24EE2404
:1011C000CE01BADE182FCE01B7DE113019F481300E
:1011D000E1F438C0181709F58B85081770F460E042
:1011E000FE01EE0DF11D838190E02F2D30E0822372
:1011F0009323181619064CF003C060E0081729F075
:10120000093008F04BC00C8749C0FE01EE0DF11DFE
:1012100083818F29838361E009C0612FFE01EE0D78
:10122000F11D9F2D9095838189238383CE01D1DE8B
:101230000F5FFF0C19F4E394FF24F39487E08E15FD
:1012400008F0BECF013430F0DB86DD2011F581E0FF
:101250008D871FC01B861D861C8690E0DE0120E066
:1012600030E0F501E20FF31F13968C911397808302
:101270002F5F3F4F11962830310599F7892FDF9165
:10128000CF911F910F91FF90EF90DF90BF90AF90A3
:1012900008958B818823F1F291E0E0CFD02EBECF6C
:1012A000FF920F931F938C01F62E862F60E026DCB1
:1012B0008F2D90E0FC01E85AFF4FE491D801EC93A8
:1012C0008C5B9F4FFC016491E62FF0E0EE0FFF1F57
:1012D000E65CFF4F8591949112969C938E931197A3
:1012E000C8011DDE1F910F91FF90089581E080934A
:1012F0007E016093790110927C0110927D01089526
:101300008091780190917701891B089590917701E0
:1013100080917801981710F080E00895E0917501B0
:10132000F0917601E90FF11D80819F5F9093770125
:1013300008950895DF93CF930F92CDB7DEB76983F9
:1013400080917E018823A9F080917D018032A8F4EC
:1013500080917C01E0917A01F0917B01E80FF11D11
:10136000608380917C018F5F80937C0180937D01FD
:1013700004C0CE01019661E0BCD00F90CF91DF9107
:101380000895D8DF089560917A0170917B01809172
:10139000790140917D0121E068D010927C0110928A
:1013A0007D0110927E010895862F609175017091E4
:1013B0007601413208F040E223D010927701809309
:1013C00078010895F1DF089580E290E061E070E037
:1013D000ACD28093750190937601109277011092B0
:1013E000780180E290E061E070E09FD280937A0122
:1013F00090937B0110927C0110927D0106D208959A
:10140000982F413210F040E02EC080918001882357
:10141000E1F781E0809380018FEF8093910110923A
:10142000880140938901990F91609093810185EE25
:1014300086BF809180018130E1F38091880184171B
:1014400010F440918801A0918601B091870120E0BD
:1014500030E007C0FB01E20FF31F8D9180832F5F07
:101460003F4F2417B8F3842F08951F93582F122F3E
:10147000413210F081E03BC0809180018823E1F788
:1014800082E0809380018FEF809391011092880118
:1014900040938901A0918601B0918701FB0102C0B0
:1014A00081918D938E2F861B8417D0F3852F90E02A
:1014B000880F991F8093810185EE86BF112321F04B
:1014C000809180018230E1F3809191018F3F11F48E
:1014D00080E00DC080919101803211F482E007C05C
:1014E00080919101803311F084E001C083E01F916D
:1014F0000895482F613210F081E0089580918001B5
:10150000843011F082E0089560938D01A0918A01EA
:10151000B0918B01842F9C01F90102C081918D93C0
:101520008E2F841B8617D0F380E008951F920F92B0
:101530000FB60F9211242F933F934F935F936F93A6
:101540007F938F939F93AF93BF93EF93FF9381B15B
:1015500090E0887F90708036910509F4D6C081367E
:101560009105CCF58832910509F47AC0893291054C
:10157000B4F48031910509F46FC0813191053CF4D8
:10158000009709F428C1089709F02EC165C0883179
:10159000910509F465C0809709F026C17BC08034AD
:1015A000910509F49AC08134910544F48033910582
:1015B00009F479C0C89709F017C17EC0803591053C
:1015C00009F47EC08835910509F48CC088349105F2
:1015D00009F00AC194C08839910509F4F6C0893927
:1015E0009105ECF48837910509F48FC0893791058E
:1015F0004CF48836910509F488C08037910509F0CC
:10160000F3C083C08838910509F4DFC080399105A3
:1016100009F481C08038910509F0E6C07CC0803BA8
:10162000910509F4A5C0813B91054CF4803A9105E0
:1016300009F484C0883A910509F0D6C099C0803C6D
:10164000910509F4C5C0883C910509F4C1C0883BE7
:10165000910509F0C9C0A4C08091810183B9B3C0CC
:101660009091880180918901981770F49091880178
:10167000E0918601F0918701E90FF11D808183B926
:101680009F5F909388019FC085ED86BF06B604FCDE
:10169000FDCFA8C080E28093910185ED86BF06B69C
:1016A00004FCFDCF9FC080E38093910185ED86BF50
:1016B00006B604FCFDCF96C088E38093910188C0F4
:1016C0008091880193B1E0918601F0918701E80F44
:1016D000F11D90838F5F80938801909188018091A4
:1016E00089016FC08091880193B1E0918601F091EA
:1016F0008701E80FF11D90838F5F8093880185ED4E
:1017000086BF06B604FCFDCF6DC083E080938001E8
:101710001092900158C080919001803208F055C01D
:101720008091900193B1E0918E01F0918F01E80FCB
:10173000F11D90838F5F8093900145C0809190014F
:10174000803248F480919001E0918E01F0918F01F8
:10175000E80FF11D108260919001E0918401F091F9
:10176000850180918E0190918F0170E0099530C0C4
:1017700084E08093800110928C0110928D01E091A1
:101780008201F0918301099580918D01882341F4B4
:1017900081E080938D01E0918A01F0918B011082AC
:1017A00090918C01E0918A01F0918B01E90FF11D7C
:1017B000808183B99F5F90938C0190918C0180917F
:1017C0008D01981710F485EC01C085E886BF0CC028
:1017D00085EC86BF07C01092910185ED86BF06B6E5
:1017E00004FCFDCF10928001FF91EF91BF91AF916A
:1017F0009F918F917F916F915F914F913F912F9129
:101800000F900FBE0F901F90189510928001AC9A08
:10181000AD9A0898099888E480B985E486BF80E28B
:1018200090E061E070E081D0809386019093870121
:1018300080E290E061E070E078D080938A0190933C
:101840008B0180E290E061E070E06FD080938E01C8
:1018500090938F01089597FB092E07260AD077FDF4
:1018600004D049D006D000201AF4709561957F4FBE
:101870000895F6F7909581959F4F0895A1E21A2E4D
:10188000AA1BBB1BFD010DC0AA1FBB1FEE1FFF1F24
:10189000A217B307E407F50720F0A21BB30BE40B74
:1018A000F50B661F771F881F991F1A9469F76095BB
:1018B0007095809590959B01AC01BD01CF01089575
:1018C00097FB092E05260ED057FD04D0D7DF0AD08E
:1018D000001C38F450954095309521953F4F4F4F5F
:1018E0005F4F0895F6F790958095709561957F4FBD
:1018F0008F4F9F4F0895AA1BBB1B51E107C0AA1F22
:10190000BB1FA617B70710F0A61BB70B881F991FA0
:101910005A95A9F780959095BC01CD010895EE0FD9
:10192000FF1F0590F491E02D09940F931F93CF931F
:10193000DF93689F8001699F100D789F100D11241F
:10194000C8010DD0EC01009721F060E070E0A80123
:101950000BD1CE01DF91CF911F910F910895CF93BD
:10196000DF93BC018230910510F462E070E0A09139
:101970009401B0919501ED01E0E0F0E040E050E02D
:1019800021C0888199818617970769F48A819B8194
:10199000309719F09383828304C0909395018093CC
:1019A0009401FE0134C06817790738F441155105D8
:1019B00019F08417950708F4AC01FE018A819B8118
:1019C0009C01E9012097E9F641155105A9F1CA01E9
:1019D000861B970B049708F4BA01E0E0F0E02AC0F8
:1019E0008D919C91119784179507F9F464177507E9
:1019F00081F412968D919C911397309719F09383EF
:101A0000828304C09093950180939401FD013296E6
:101A10004FC0CA01861B970BFD01E80FF91F6193A8
:101A2000719302978D939C9343C0FD0182819381B2
:101A30009C01D9011097A1F6809192019091930198
:101A4000892B41F480916E0090916F0090939301E7
:101A500080939201409170005091710041155105A1
:101A600041F44DB75EB780916C0090916D00481BBA
:101A7000590B209192013091930124173507B0F44E
:101A8000CA01821B930B8617970780F0AB014E5F4C
:101A90005F4F8417950750F0420F531F50939301E7
:101AA00040939201F9016193719302C0E0E0F0E08C
:101AB000CF01DF91CF910895CF93DF93009709F481
:101AC00050C0EC0122971B821A82A0919401B09120
:101AD0009501109709F140E050E0AC17BD0708F1FF
:101AE000BB83AA83FE0121913191E20FF31FAE1750
:101AF000BF0779F48D919C911197280F391F2E5FA4
:101B00003F4F3983288312968D919C9113979B8325
:101B10008A834115510571F4D0939501C0939401C6
:101B200020C012968D919C911397AD01009711F0F2
:101B3000DC01D3CFFA01D383C28321913191E20F2B
:101B4000F31FCE17DF0769F488819981280F391FA9
:101B50002E5F3F4FFA01318320838A819B819383DB
:101B60008283DF91CF910895DC0101C06D934150D4
:0A1B70005040E0F70895F894FFCF0D
:101B7A00703A20002C20002E000D0A002000960149
:101B8A0000007D00180038000100FF00100001006D
:0A1B9A0000000040068A06A20600C3
:00000001FF
