:100000000C9404010C942E010C942E010C942E01DE
:100010000C942E010C942E010C942E010C942E01A4
:100020000C942E010C942E010C942E010C942E0194
:100030000C942E010C942E010C942E010C942E0184
:100040000C942E010C94BE070C942E010C942E01DE
:100050000C942E010C942E010C942E010C947E0114
:100060000C942E010C9478020C942E010C942E0109
:100070000C942E010C942E010C942E010C942E0144
:100080000C9491070C942E010C942E010C942E01CB
:100090000C94A4020C942E010C942E010C942E01AD
:1000A0000C942E010C942E010C9464070C942E01D8
:1000B0000C942E010C942E010C942E010C943707F5
:1000C0000C942E010C942E010C942E010C94D00251
:1000D0000C942E010C942E010C94FC020C942E0115
:1000E0000C942E0100002100240027002A002D007E
:1000F0003000330001010000040107010A01000083
:100100002200250028002B002E00310034000201BF
:100110000000050108010B0100002000230026005B
:1001200029002C002F00320000010000030106010D
:10013000090105050505070508080808020202026D
:100140000A0A080804040404010101010101010173
:100150000303030303030303040707070C0C0C0C3E
:100160000C0C0C0C02020202060606060606060627
:100170000B0B0B0B0B0B0B0B0102102020080810B4
:100180002040102040800201020108040201010207
:1001900004081020408080402010080402018004E0
:1001A000020180402010080402010804020101023B
:1001B0000408102040800102040810204080000044
:1001C000090A02080B0C0D070603040100000000D9
:1001D000000000000000000000000000000000001F
:1001E00000000000000000000000100F0E000000E2
:1001F00000000000000000000000000000000000FF
:10020000000000003001E00311241FBECFEFD1E257
:10021000DEBFCDBF12E0A0E0B2E0ECEEF2E100E024
:100220000BBF02C007900D92AA30B107D9F715E0B5
:10023000AAE0B2E001C01D92A336B107E1F712E0D7
:10024000C8E0D2E004C02297FE010E947009C430C9
:10025000D107C9F70E9477010C9474090C9400002F
:100260008AE092E00E94DE04089580910B02909152
:100270000C0264E970E00E940A0990930C028093DA
:100280000B0286E294E00E949103882371F086E2DB
:1002900094E00E94A50360E570E00E940A098C5971
:1002A0009F4F90930C0280930B0260910B02709110
:1002B0000C028AE092E00E94FA0461E070E080E0C3
:1002C00090E00E94C601089586E294E040E855E27D
:1002D00060E070E00E9428038AE092E062E070E053
:1002E00040E253E028E938E00E94A60508950E9404
:1002F000F0010E9464010E943501FDCF1F920F9210
:100300000FB60F9211242F933F938F939F93AF9328
:10031000BF938091110290911202A0911302B091AB
:100320001402309115020196A11DB11D232F2D5FDE
:100330002D3720F02D570196A11DB11D20931502D8
:100340008093110290931202A0931302B0931402AF
:1003500080910D0290910E02A0910F02B0911002B7
:100360000196A11DB11D80930D0290930E02A093E2
:100370000F02B0931002BF91AF919F918F913F9167
:100380002F910F900FBE0F901F901895EF92FF9234
:100390000F931F937B018C018FB7F894409111024A
:1003A0005091120260911302709114028FBF2FB707
:1003B000F8948091110290911202A0911302B091D1
:1003C00014022FBF841B950BA60BB70BE816F9067A
:1003D0000A071B0760F71F910F91FF90EF90089598
:1003E000789484B5826084BD84B5816084BD85B510
:1003F000826085BD85B5816085BDEEE6F0E08081D7
:1004000081608083E1E8F0E0808182608083808188
:1004100081608083E0E8F0E0808181608083E1EBAF
:10042000F0E0808184608083E0EBF0E08081816097
:100430008083E1E9F0E08081826080838081816057
:100440008083E1EAF0E08081826080838081816046
:100450008083E1E2F1E0808182608083808181603D
:100460008083E0E9F0E0808181608083E0EAF0E071
:10047000808181608083E0E2F1E08081816080831F
:10048000EAE7F0E0808184608083808182608083FD
:100490008081816080838081806880831092C10028
:1004A00008950F931F93CF93DF93482FFB018B0188
:1004B00000581F4FD801CD91DC91CE01019660E824
:1004C00070E00E940A099C01EE57FF4F80819181E4
:1004D000E258F0402817390731F0CE0FDF1F48836C
:1004E000F80131832083DF91CF911F910F910895FF
:1004F0001F920F920FB60F920BB60F9211242F93EB
:100500003F934F935F936F937F938F939F93AF939B
:10051000BF93EF93FF938091C60066E172E00E9463
:100520005102FF91EF91BF91AF919F918F917F9178
:100530006F915F914F913F912F910F900BBE0F9054
:100540000FBE0F901F9018951F920F920FB60F922B
:100550000BB60F9211242F933F934F935F936F939A
:100560007F938F939F93AF93BF93EF93FF9380916C
:10057000CE006AE972E00E945102FF91EF91BF91B3
:10058000AF919F918F917F916F915F914F913F912B
:100590002F910F900BBE0F900FBE0F901F901895CC
:1005A0001F920F920FB60F920BB60F9211242F933A
:1005B0003F934F935F936F937F938F939F93AF93EB
:1005C000BF93EF93FF938091D6006EE173E00E949A
:1005D0005102FF91EF91BF91AF919F918F917F91C8
:1005E0006F915F914F913F912F910F900BBE0F90A4
:1005F0000FBE0F901F9018951F920F920FB60F927B
:100600000BB60F9211242F933F934F935F936F93E9
:100610007F938F939F93AF93BF93EF93FF938091BB
:10062000360162EA73E00E945102FF91EF91BF919F
:10063000AF919F918F917F916F915F914F913F917A
:100640002F910F900BBE0F900FBE0F901F9018951B
:10065000AF92BF92CF92DF92EF92FF920F931F93D0
:10066000CF93DF936C017A018B01DC011496AD907E
:10067000BC901597CB01BA0122E030E040E050E099
:100680000E943F09205C3D4B404F5F4FCA01B901BA
:10069000A80197010E943F09C901DA010197A10948
:1006A000B109292F3A2F4B2F552747FD5A9501960F
:1006B000A11DB11DE5012883E601EE81FF81815076
:1006C0008083EA85FB85208141E050E0CA010E84E9
:1006D00002C0880F991F0A94E2F7282B2083EA852D
:1006E000FB852081CA010F8402C0880F991F0A94DC
:1006F000E2F7282B2083EA85FB858081088802C0E9
:10070000440F551F0A94E2F7842B8083DF91CF9129
:100710001F910F91FF90EF90DF90CF90BF90AF901F
:100720000895DC011296ED91FC911397E058FF4F6C
:100730008191919180589F4F20813181821B930B31
:1007400060E870E00E940A090895CF93DF93DC010E
:100750001296ED91FC911397EF01CE57DF4F488130
:100760005981E058FF4F80819181E058F040841713
:10077000950719F42FEF3FEF0CC0E40FF51F208110
:10078000CA01019660E870E00E940A099983888393
:1007900030E0C901DF91CF910895FC01A085B185BA
:1007A00021898C9190E0022E02C0959587950A943C
:1007B000E2F780FFF6CF0484F585E02D608308958D
:1007C00024E032E0309327042093260486E192E06F
:1007D000909329048093280485EC90E090932B0457
:1007E00080932A0484EC90E090932D0480932C0451
:1007F00080EC90E090932F0480932E0481EC90E0A5
:10080000909331048093300486EC90E0909333040D
:100810008093320474E07093340463E06093350491
:1008200057E05093360445E0409337043093390441
:10083000209338048AE992E090933B0480933A0431
:100840008DEC90E090933D0480933C048CEC90E020
:1008500090933F0480933E0488EC90E09093410491
:100860008093400489EC90E0909343048093420489
:100870008EEC90E09093450480934404709346047A
:1008800060934704509348044093490430934B04C9
:1008900020934A048EE193E090934D0480934C049E
:1008A00085ED90E090934F0480934E0484ED90E0AA
:1008B000909351048093500480ED90E09093530402
:1008C0008093520481ED90E09093550480935404FA
:1008D00086ED90E0909357048093560470935804EB
:1008E0006093590450935A0440935B0430935D0421
:1008F00020935C0482EA93E090935F0480935E040B
:1009000085E391E0909361048093600484E391E037
:10091000909363048093620480E391E09093650474
:100920008093640481E391E090936704809366046C
:1009300086E391E0909369048093680470936A045D
:1009400060936B0450936C0440936D0408950F936F
:100950001F93CF93DF938C01EB0109C02196D8013F
:10096000ED91FC910190F081E02DC801099568811D
:100970006623A1F7DF91CF911F910F910895EF9218
:10098000FF920F931F93CF93DF938C017B01EA01BA
:100990000CC0D7016D917D01D801ED91FC910190C2
:1009A000F081E02DC80109952197209791F7DF91FB
:1009B000CF911F910F91FF90EF900895FC018091CE
:1009C0006E048033A0F480838F5F80936E04815027
:1009D00090E0FC01EE0FFF1FEE0FFF1FE80FF91F65
:1009E000E159FB4F88EB9BE09283818308958FEF61
:1009F000808308959F92AF92BF92CF92DF92EF9241
:100A0000FF920F931F93FC01AB0190808FE2891539
:100A100008F492C0292D30E0683C71050CF048C004
:100A200000D000D0BA01882777FD8095982FF90172
:100A3000EE0FFF1FEE0FFF1FE20FF31FE159FB4FF9
:100A40002381332727FD3095B8E8AB2EB12CA21AAD
:100A5000B30AAA0CBB1CAA0CBB1CCC24B7FCC094C8
:100A6000DC2CE481FF27E7FDF09528E532E02E1B22
:100A70003F0B220F331F220F331F442737FD4095B2
:100A8000542FEDB7FEB7218332834383548320E094
:100A900030E040E050E0E4EBEE2EF12C012D112D82
:100AA0000E949608AB010F900F900F900F9028C0F6
:100AB000F901EE0FFF1FEE0FFF1FE20FF31FE159C9
:100AC000FB4F8381992787FD909528E830E0281B0C
:100AD000390B220F331F220F331F621773077CF06D
:100AE0008481992787FD909528E532E0281B390BF2
:100AF000220F331F220F331F241735070CF4A901CF
:100B0000CA01AA2797FDA095BA2F0697A109B10996
:100B1000880F991FAA1FBB1F4FB7F894292D30E0EB
:100B2000F901EE0FFF1FEE0FFF1FE20FF31FE15958
:100B3000FB4F928381834FBF1F910F91FF90EF90E6
:100B4000DF90CF90BF90AF909F900895CF92DF92AB
:100B5000EF92FF921F93CF93DF93EC01162F7A0150
:100B600069018881803308F0A9C0862F61E00E9466
:100B7000EB07888190E0FC01EE0FFF1FEE0FFF1FD7
:100B8000E80FF91FE159FB4F1F738081807C812B97
:100B90008083888190E0FC01EE0FFF1FEE0FFF1FA6
:100BA000E80FF91FE159FB4F80E292E08E199F098F
:100BB00064E070E00E940A096383888190E0FC0190
:100BC000EE0FFF1FEE0FFF1FE80FF91FE159FB4F5C
:100BD00080E699E08C199D0964E070E00E940A09A2
:100BE0006483A8818A2F6CE00E94FE08682F90E041
:100BF000AC01440F551F480F591F440F551F440F98
:100C0000551F20E030E0C901840F951FFC01EE0F55
:100C1000FF1FEE0FFF1FE80FF91FE159FB4F808107
:100C200086FD3EC02F5F3F4F2C30310561F74FC02E
:100C30001092800082E080938100109285001092D3
:100C4000840086BB80936F002BC0623061F41092E9
:100C5000900060939100109295001092940068BBF0
:100C6000609371001DC0633069F41092A00082E0AF
:100C70008093A1001092A5001092A40089BB8093DC
:100C800072000EC0662361F41092200182E080930E
:100C9000210110922501109224018ABB80937300D8
:100CA0008A2F90E0FC01EE0FFF1FEE0FFF1FE80FF1
:100CB000F91FE159FB4F8081806480838881DF9137
:100CC000CF911F91FF90EF90DF90CF90089561300A
:100CD00009F0BBCFADCFEF92FF920F931F93CF934D
:100CE000DF938B017A01C82FD0E0DE01A15ABA4F01
:100CF0008C9187FF04C0FB01118210823BC0AE01C2
:100D0000440F551F4C0F5D1F440F551F440F551FB7
:100D10002C91332727FD3095240F351F80916E04C9
:100D200090E02817390734F58C91992787FD909525
:100D3000840F951FFC01EE0FFF1FEE0FFF1FE80F42
:100D4000F91FE159FB4F808186FF14C08C919927D0
:100D500087FD9095840F951FFC01EE0FFF1FEE0F8E
:100D6000FF1FE80FF91FE159FB4F80818F7360E08F
:100D70000E940B08DE01A15ABA4F8C918F5F8C93B1
:100D8000AE01440F551F4C0F5D1F440F551F440FFC
:100D9000551F2C91332727FD3095240F351F809147
:100DA0006E0490E0281739070CF053C08C918C30FA
:100DB0000CF04FC0F801208131818C91992787FD7B
:100DC0009095840F951FFC01EE0FFF1FEE0FFF1F84
:100DD000E80FF91FE159FB4F81819281280F391FDC
:100DE000F701318320838C91992787FD9095840F9B
:100DF000951FFC01EE0FFF1FEE0FFF1FE80FF91FFD
:100E0000E159FB4F808186FF2BC08C91992787FD8C
:100E10009095840F951FFC01EE0FFF1FEE0FFF1F33
:100E2000E80FF91FE159FB4F80818F7361E00E9449
:100E30000B0816C080E49CE904C0F8018081918110
:100E40000496F70191838083C15ADA4F8FEF88832C
:100E500007C0F8018081918184549C4958F3EDCFFB
:100E6000DF91CF911F910F91FF90EF9008951F9206
:100E70000F920FB60F920BB60F9211242F933F9340
:100E80004F935F936F937F938F939F93AF93BF9392
:100E9000EF93FF9380E064E271E048E251E00E944A
:100EA0006B06FF91EF91BF91AF919F918F917F91D1
:100EB0006F915F914F913F912F910F900BBE0F90CB
:100EC0000FBE0F901F9018951F920F920FB60F92A2
:100ED0000BB60F9211242F933F934F935F936F9311
:100EE0007F938F939F93AF93BF93EF93FF9383E091
:100EF00064EA70E048EA50E00E946B06FF91EF91CF
:100F0000BF91AF919F918F917F916F915F914F9121
:100F10003F912F910F900BBE0F900FBE0F901F901F
:100F200018951F920F920FB60F920BB60F921124C5
:100F30002F933F934F935F936F937F938F939F93E1
:100F4000AF93BF93EF93FF9382E064E970E048E9C9
:100F500050E00E946B06FF91EF91BF91AF919F917E
:100F60008F917F916F915F914F913F912F910F9052
:100F70000BBE0F900FBE0F901F9018951F920F92EF
:100F80000FB60F920BB60F9211242F933F934F93EE
:100F90005F936F937F938F939F93AF93BF93EF93E1
:100FA000FF9381E064E870E048E850E00E946B063F
:100FB000FF91EF91BF91AF919F918F917F916F9131
:100FC0005F914F913F912F910F900BBE0F900FBEED
:100FD0000F901F901895282F30E0C90188589E4F18
:100FE000FC0194912E5C3E4FF9018491882391F08D
:100FF000E82FF0E0EE0FFF1FEC51FF4FA591B491E9
:10100000662329F48C91909589238C9308958C9173
:10101000892B8C930895482F50E0CA0182549E4F2B
:10102000FC012491CA0188589E4FFC0194914E5CAA
:101030005E4FFA013491332309F477C0222309F477
:1010400062C0233021F4809180008F7705C0243066
:1010500031F4809180008F7D8093800054C02130D6
:1010600019F484B58F7704C0223021F484B58F7DC4
:1010700084BD49C0263021F48091B0008F7705C02F
:10108000273031F48091B0008F7D8093B0003BC059
:10109000283021F4809190008F7705C0293031F4F9
:1010A000809190008F7D809390002DC02A3021F494
:1010B00080919000877FF7CF2B3021F48091A000A2
:1010C0008F770BC02C3021F48091A0008F7D05C05C
:1010D0002D3031F48091A000877F8093A00013C051
:1010E0002E3021F4809120018F770BC02F3021F416
:1010F000809120018F7D05C0203129F4809120014D
:10110000877F80932001E32FF0E0EE0FFF1FE25076
:10111000FF4FA591B491662329F48C919095892372
:101120008C9308958C91892B8C9308952F923F92E4
:101130004F925F926F927F928F929F92AF92BF92E7
:10114000CF92DF92EF92FF920F931F93DF93CF9393
:10115000CDB7DEB73B014C0119012A016D897E89AB
:101160008F89988D6A197B098C099D09621A730A07
:10117000840A950AA40193010E94DF08E218F3088B
:1011800004091509A80197010E943F092A0D3B1D7A
:101190004C1D5D1DB901CA01CF91DF911F910F91C7
:1011A000FF90EF90DF90CF90BF90AF909F908F9087
:1011B0007F906F905F904F903F902F900895629F27
:1011C000D001739FF001829FE00DF11D649FE00D3F
:1011D000F11D929FF00D839FF00D749FF00D659FA0
:1011E000F00D9927729FB00DE11DF91F639FB00D9F
:1011F000E11DF91FBD01CF0111240895991B79E06C
:1012000004C0991F961708F0961B881F7A95C9F796
:101210008095089597FB092E07260AD077FD04D004
:1012200049D006D000201AF4709561957F4F08953B
:10123000F6F7909581959F4F0895A1E21A2EAA1B6B
:10124000BB1BFD010DC0AA1FBB1FEE1FFF1FA21776
:10125000B307E407F50720F0A21BB30BE40BF50B73
:10126000661F771F881F991F1A9469F760957095FC
:10127000809590959B01AC01BD01CF01089597FB2E
:10128000092E05260ED057FD04D0D7DF0AD0001C4A
:1012900038F450954095309521953F4F4F4F5F4F13
:1012A0000895F6F790958095709561957F4F8F4FD3
:1012B0009F4F0895AA1BBB1B51E107C0AA1FBB1F6C
:1012C000A617B70710F0A61BB70B881F991F5A95D2
:1012D000A9F780959095BC01CD010895EE0FFF1FF1
:0C12E0000590F491E02D0994F894FFCFE4
:0A12EC0000000000CD03A704BF04BA
:00000001FF
